{
  "contractName": "Certificate",
  "abi": [
    {
      "inputs": [],
      "stateMutability": "nonpayable",
      "type": "constructor"
    },
    {
      "anonymous": false,
      "inputs": [
        {
          "indexed": true,
          "internalType": "address",
          "name": "owner",
          "type": "address"
        },
        {
          "indexed": true,
          "internalType": "address",
          "name": "approved",
          "type": "address"
        },
        {
          "indexed": true,
          "internalType": "uint256",
          "name": "tokenId",
          "type": "uint256"
        }
      ],
      "name": "Approval",
      "type": "event"
    },
    {
      "anonymous": false,
      "inputs": [
        {
          "indexed": true,
          "internalType": "address",
          "name": "owner",
          "type": "address"
        },
        {
          "indexed": true,
          "internalType": "address",
          "name": "operator",
          "type": "address"
        },
        {
          "indexed": false,
          "internalType": "bool",
          "name": "approved",
          "type": "bool"
        }
      ],
      "name": "ApprovalForAll",
      "type": "event"
    },
    {
      "anonymous": false,
      "inputs": [
        {
          "indexed": true,
          "internalType": "address",
          "name": "previousOwner",
          "type": "address"
        },
        {
          "indexed": true,
          "internalType": "address",
          "name": "newOwner",
          "type": "address"
        }
      ],
      "name": "OwnershipTransferred",
      "type": "event"
    },
    {
      "anonymous": false,
      "inputs": [
        {
          "indexed": true,
          "internalType": "address",
          "name": "from",
          "type": "address"
        },
        {
          "indexed": true,
          "internalType": "address",
          "name": "to",
          "type": "address"
        },
        {
          "indexed": true,
          "internalType": "uint256",
          "name": "tokenId",
          "type": "uint256"
        }
      ],
      "name": "Transfer",
      "type": "event"
    },
    {
      "inputs": [
        {
          "internalType": "address",
          "name": "",
          "type": "address"
        }
      ],
      "name": "address_to_userdata",
      "outputs": [
        {
          "internalType": "string",
          "name": "accType",
          "type": "string"
        },
        {
          "internalType": "string",
          "name": "studentID",
          "type": "string"
        },
        {
          "internalType": "string",
          "name": "name",
          "type": "string"
        },
        {
          "internalType": "string",
          "name": "residentialAddress",
          "type": "string"
        },
        {
          "internalType": "uint16",
          "name": "day",
          "type": "uint16"
        },
        {
          "internalType": "uint16",
          "name": "month",
          "type": "uint16"
        },
        {
          "internalType": "uint16",
          "name": "year",
          "type": "uint16"
        },
        {
          "internalType": "string",
          "name": "university",
          "type": "string"
        }
      ],
      "stateMutability": "view",
      "type": "function",
      "constant": true
    },
    {
      "inputs": [
        {
          "internalType": "address",
          "name": "to",
          "type": "address"
        },
        {
          "internalType": "uint256",
          "name": "tokenId",
          "type": "uint256"
        }
      ],
      "name": "approve",
      "outputs": [],
      "stateMutability": "nonpayable",
      "type": "function"
    },
    {
      "inputs": [
        {
          "internalType": "address",
          "name": "owner",
          "type": "address"
        }
      ],
      "name": "balanceOf",
      "outputs": [
        {
          "internalType": "uint256",
          "name": "",
          "type": "uint256"
        }
      ],
      "stateMutability": "view",
      "type": "function",
      "constant": true
    },
    {
      "inputs": [
        {
          "internalType": "uint256",
          "name": "tokenId",
          "type": "uint256"
        }
      ],
      "name": "getApproved",
      "outputs": [
        {
          "internalType": "address",
          "name": "",
          "type": "address"
        }
      ],
      "stateMutability": "view",
      "type": "function",
      "constant": true
    },
    {
      "inputs": [
        {
          "internalType": "uint256",
          "name": "",
          "type": "uint256"
        }
      ],
      "name": "id_to_metadata",
      "outputs": [
        {
          "internalType": "uint256",
          "name": "id",
          "type": "uint256"
        },
        {
          "internalType": "uint16",
          "name": "day",
          "type": "uint16"
        },
        {
          "internalType": "uint16",
          "name": "month",
          "type": "uint16"
        },
        {
          "internalType": "uint16",
          "name": "year",
          "type": "uint16"
        },
        {
          "internalType": "string",
          "name": "title",
          "type": "string"
        },
        {
          "internalType": "string",
          "name": "description",
          "type": "string"
        },
        {
          "internalType": "string",
          "name": "university",
          "type": "string"
        },
        {
          "internalType": "string",
          "name": "professor",
          "type": "string"
        },
        {
          "internalType": "string",
          "name": "course",
          "type": "string"
        },
        {
          "internalType": "uint256",
          "name": "seriesID",
          "type": "uint256"
        }
      ],
      "stateMutability": "view",
      "type": "function",
      "constant": true
    },
    {
      "inputs": [
        {
          "internalType": "address",
          "name": "owner",
          "type": "address"
        },
        {
          "internalType": "address",
          "name": "operator",
          "type": "address"
        }
      ],
      "name": "isApprovedForAll",
      "outputs": [
        {
          "internalType": "bool",
          "name": "",
          "type": "bool"
        }
      ],
      "stateMutability": "view",
      "type": "function",
      "constant": true
    },
    {
      "inputs": [],
      "name": "name",
      "outputs": [
        {
          "internalType": "string",
          "name": "",
          "type": "string"
        }
      ],
      "stateMutability": "view",
      "type": "function",
      "constant": true
    },
    {
      "inputs": [],
      "name": "numNFT",
      "outputs": [
        {
          "internalType": "uint256",
          "name": "",
          "type": "uint256"
        }
      ],
      "stateMutability": "view",
      "type": "function",
      "constant": true
    },
    {
      "inputs": [],
      "name": "numSeries",
      "outputs": [
        {
          "internalType": "uint256",
          "name": "",
          "type": "uint256"
        }
      ],
      "stateMutability": "view",
      "type": "function",
      "constant": true
    },
    {
      "inputs": [],
      "name": "numStudents",
      "outputs": [
        {
          "internalType": "uint256",
          "name": "",
          "type": "uint256"
        }
      ],
      "stateMutability": "view",
      "type": "function",
      "constant": true
    },
    {
      "inputs": [],
      "name": "owner",
      "outputs": [
        {
          "internalType": "address",
          "name": "",
          "type": "address"
        }
      ],
      "stateMutability": "view",
      "type": "function",
      "constant": true
    },
    {
      "inputs": [
        {
          "internalType": "uint256",
          "name": "tokenId",
          "type": "uint256"
        }
      ],
      "name": "ownerOf",
      "outputs": [
        {
          "internalType": "address",
          "name": "",
          "type": "address"
        }
      ],
      "stateMutability": "view",
      "type": "function",
      "constant": true
    },
    {
      "inputs": [
        {
          "internalType": "address",
          "name": "",
          "type": "address"
        }
      ],
      "name": "profTokenNum",
      "outputs": [
        {
          "internalType": "uint16",
          "name": "",
          "type": "uint16"
        }
      ],
      "stateMutability": "view",
      "type": "function",
      "constant": true
    },
    {
      "inputs": [
        {
          "internalType": "address",
          "name": "",
          "type": "address"
        },
        {
          "internalType": "uint256",
          "name": "",
          "type": "uint256"
        }
      ],
      "name": "profTokens",
      "outputs": [
        {
          "internalType": "uint256",
          "name": "",
          "type": "uint256"
        }
      ],
      "stateMutability": "view",
      "type": "function",
      "constant": true
    },
    {
      "inputs": [
        {
          "internalType": "address",
          "name": "",
          "type": "address"
        }
      ],
      "name": "professors",
      "outputs": [
        {
          "internalType": "bool",
          "name": "",
          "type": "bool"
        }
      ],
      "stateMutability": "view",
      "type": "function",
      "constant": true
    },
    {
      "inputs": [],
      "name": "renounceOwnership",
      "outputs": [],
      "stateMutability": "nonpayable",
      "type": "function"
    },
    {
      "inputs": [
        {
          "internalType": "address",
          "name": "from",
          "type": "address"
        },
        {
          "internalType": "address",
          "name": "to",
          "type": "address"
        },
        {
          "internalType": "uint256",
          "name": "tokenId",
          "type": "uint256"
        }
      ],
      "name": "safeTransferFrom",
      "outputs": [],
      "stateMutability": "nonpayable",
      "type": "function"
    },
    {
      "inputs": [
        {
          "internalType": "address",
          "name": "from",
          "type": "address"
        },
        {
          "internalType": "address",
          "name": "to",
          "type": "address"
        },
        {
          "internalType": "uint256",
          "name": "tokenId",
          "type": "uint256"
        },
        {
          "internalType": "bytes",
          "name": "data",
          "type": "bytes"
        }
      ],
      "name": "safeTransferFrom",
      "outputs": [],
      "stateMutability": "nonpayable",
      "type": "function"
    },
    {
      "inputs": [
        {
          "internalType": "address",
          "name": "operator",
          "type": "address"
        },
        {
          "internalType": "bool",
          "name": "approved",
          "type": "bool"
        }
      ],
      "name": "setApprovalForAll",
      "outputs": [],
      "stateMutability": "nonpayable",
      "type": "function"
    },
    {
      "inputs": [
        {
          "internalType": "string",
          "name": "",
          "type": "string"
        }
      ],
      "name": "studIdToAddr",
      "outputs": [
        {
          "internalType": "address",
          "name": "",
          "type": "address"
        }
      ],
      "stateMutability": "view",
      "type": "function",
      "constant": true
    },
    {
      "inputs": [
        {
          "internalType": "address",
          "name": "",
          "type": "address"
        }
      ],
      "name": "studentTokenNum",
      "outputs": [
        {
          "internalType": "uint16",
          "name": "",
          "type": "uint16"
        }
      ],
      "stateMutability": "view",
      "type": "function",
      "constant": true
    },
    {
      "inputs": [
        {
          "internalType": "address",
          "name": "",
          "type": "address"
        },
        {
          "internalType": "uint256",
          "name": "",
          "type": "uint256"
        }
      ],
      "name": "studentTokens",
      "outputs": [
        {
          "internalType": "uint256",
          "name": "",
          "type": "uint256"
        }
      ],
      "stateMutability": "view",
      "type": "function",
      "constant": true
    },
    {
      "inputs": [
        {
          "internalType": "uint256",
          "name": "",
          "type": "uint256"
        }
      ],
      "name": "students",
      "outputs": [
        {
          "internalType": "address",
          "name": "",
          "type": "address"
        }
      ],
      "stateMutability": "view",
      "type": "function",
      "constant": true
    },
    {
      "inputs": [
        {
          "internalType": "bytes4",
          "name": "interfaceId",
          "type": "bytes4"
        }
      ],
      "name": "supportsInterface",
      "outputs": [
        {
          "internalType": "bool",
          "name": "",
          "type": "bool"
        }
      ],
      "stateMutability": "view",
      "type": "function",
      "constant": true
    },
    {
      "inputs": [],
      "name": "symbol",
      "outputs": [
        {
          "internalType": "string",
          "name": "",
          "type": "string"
        }
      ],
      "stateMutability": "view",
      "type": "function",
      "constant": true
    },
    {
      "inputs": [
        {
          "internalType": "uint256",
          "name": "tokenId",
          "type": "uint256"
        }
      ],
      "name": "tokenURI",
      "outputs": [
        {
          "internalType": "string",
          "name": "",
          "type": "string"
        }
      ],
      "stateMutability": "view",
      "type": "function",
      "constant": true
    },
    {
      "inputs": [
        {
          "internalType": "address",
          "name": "from",
          "type": "address"
        },
        {
          "internalType": "address",
          "name": "to",
          "type": "address"
        },
        {
          "internalType": "uint256",
          "name": "tokenId",
          "type": "uint256"
        }
      ],
      "name": "transferFrom",
      "outputs": [],
      "stateMutability": "nonpayable",
      "type": "function"
    },
    {
      "inputs": [
        {
          "internalType": "address",
          "name": "newOwner",
          "type": "address"
        }
      ],
      "name": "transferOwnership",
      "outputs": [],
      "stateMutability": "nonpayable",
      "type": "function"
    },
    {
      "inputs": [
        {
          "internalType": "address",
          "name": "",
          "type": "address"
        }
      ],
      "name": "universities",
      "outputs": [
        {
          "internalType": "bool",
          "name": "",
          "type": "bool"
        }
      ],
      "stateMutability": "view",
      "type": "function",
      "constant": true
    },
    {
      "inputs": [
        {
          "internalType": "address",
          "name": "newUniAddress",
          "type": "address"
        },
        {
          "internalType": "string",
          "name": "uniName",
          "type": "string"
        }
      ],
      "name": "addUniversity",
      "outputs": [],
      "stateMutability": "nonpayable",
      "type": "function"
    },
    {
      "inputs": [
        {
          "internalType": "address",
          "name": "newProfAddress",
          "type": "address"
        },
        {
          "internalType": "string",
          "name": "profName",
          "type": "string"
        }
      ],
      "name": "addProfessor",
      "outputs": [],
      "stateMutability": "nonpayable",
      "type": "function"
    },
    {
      "inputs": [
        {
          "internalType": "string",
          "name": "studentID",
          "type": "string"
        }
      ],
      "name": "returnStudentAddress",
      "outputs": [
        {
          "internalType": "address",
          "name": "studentAddress",
          "type": "address"
        }
      ],
      "stateMutability": "view",
      "type": "function",
      "constant": true
    },
    {
      "inputs": [
        {
          "internalType": "string",
          "name": "studentID",
          "type": "string"
        },
        {
          "internalType": "string",
          "name": "name",
          "type": "string"
        },
        {
          "internalType": "string",
          "name": "residentialAddress",
          "type": "string"
        },
        {
          "internalType": "uint16",
          "name": "day",
          "type": "uint16"
        },
        {
          "internalType": "uint16",
          "name": "month",
          "type": "uint16"
        },
        {
          "internalType": "uint16",
          "name": "year",
          "type": "uint16"
        },
        {
          "internalType": "string",
          "name": "university",
          "type": "string"
        }
      ],
      "name": "addStudent",
      "outputs": [],
      "stateMutability": "nonpayable",
      "type": "function"
    },
    {
      "inputs": [
        {
          "internalType": "address",
          "name": "addr",
          "type": "address"
        }
      ],
      "name": "getUser",
      "outputs": [
        {
          "internalType": "string",
          "name": "accType",
          "type": "string"
        },
        {
          "internalType": "string",
          "name": "studentID",
          "type": "string"
        },
        {
          "internalType": "string",
          "name": "name",
          "type": "string"
        },
        {
          "internalType": "string",
          "name": "residentialAddress",
          "type": "string"
        },
        {
          "internalType": "uint16",
          "name": "day",
          "type": "uint16"
        },
        {
          "internalType": "uint16",
          "name": "month",
          "type": "uint16"
        },
        {
          "internalType": "uint16",
          "name": "year",
          "type": "uint16"
        },
        {
          "internalType": "string",
          "name": "university",
          "type": "string"
        }
      ],
      "stateMutability": "view",
      "type": "function",
      "constant": true
    },
    {
      "inputs": [
        {
          "internalType": "uint16",
          "name": "num",
          "type": "uint16"
        },
        {
          "internalType": "uint16",
          "name": "day",
          "type": "uint16"
        },
        {
          "internalType": "uint16",
          "name": "month",
          "type": "uint16"
        },
        {
          "internalType": "uint16",
          "name": "year",
          "type": "uint16"
        },
        {
          "internalType": "string",
          "name": "title",
          "type": "string"
        },
        {
          "internalType": "string",
          "name": "description",
          "type": "string"
        },
        {
          "internalType": "string",
          "name": "course",
          "type": "string"
        }
      ],
      "name": "mint",
      "outputs": [],
      "stateMutability": "nonpayable",
      "type": "function"
    },
    {
      "inputs": [
        {
          "internalType": "address",
          "name": "studentId",
          "type": "address"
        },
        {
          "internalType": "uint256",
          "name": "tokenID",
          "type": "uint256"
        }
      ],
      "name": "transfer",
      "outputs": [],
      "stateMutability": "nonpayable",
      "type": "function"
    },
    {
      "inputs": [
        {
          "internalType": "address",
          "name": "userID",
          "type": "address"
        }
      ],
      "name": "getTokens",
      "outputs": [
        {
          "components": [
            {
              "internalType": "uint256",
              "name": "id",
              "type": "uint256"
            },
            {
              "internalType": "uint16",
              "name": "day",
              "type": "uint16"
            },
            {
              "internalType": "uint16",
              "name": "month",
              "type": "uint16"
            },
            {
              "internalType": "uint16",
              "name": "year",
              "type": "uint16"
            },
            {
              "internalType": "string",
              "name": "title",
              "type": "string"
            },
            {
              "internalType": "string",
              "name": "description",
              "type": "string"
            },
            {
              "internalType": "string",
              "name": "university",
              "type": "string"
            },
            {
              "internalType": "string",
              "name": "professor",
              "type": "string"
            },
            {
              "internalType": "string",
              "name": "course",
              "type": "string"
            },
            {
              "internalType": "uint256",
              "name": "seriesID",
              "type": "uint256"
            }
          ],
          "internalType": "struct Certificate.Metadata[]",
          "name": "tokens",
          "type": "tuple[]"
        }
      ],
      "stateMutability": "view",
      "type": "function",
      "constant": true
    }
  ],
  "bytecode": "0x60806040523480156200001157600080fd5b506040518060400160405280601581526020017f4b6e6f776c6564676520436572746966696361746500000000000000000000008152506040518060400160405280600281526020017f4b4300000000000000000000000000000000000000000000000000000000000081525081600090816200008f91906200062e565b508060019081620000a191906200062e565b505050620000c4620000b8620002e660201b60201c565b620002ee60201b60201c565b6001600781905550600160088190555060006009819055506040518061010001604052806040518060400160405280600581526020017f61646d696e00000000000000000000000000000000000000000000000000000081525081526020016040518060200160405280600081525081526020016040518060400160405280600c81526020017f4e46544150502041646d696e00000000000000000000000000000000000000008152508152602001604051806020016040528060008152508152602001600161ffff168152602001600161ffff16815260200161076c61ffff16815260200160405180602001604052806000815250815250601360003373ffffffffffffffffffffffffffffffffffffffff1673ffffffffffffffffffffffffffffffffffffffff16815260200190815260200160002060008201518160000190816200021391906200062e565b5060208201518160010190816200022b91906200062e565b5060408201518160020190816200024391906200062e565b5060608201518160030190816200025b91906200062e565b5060808201518160040160006101000a81548161ffff021916908361ffff16021790555060a08201518160040160026101000a81548161ffff021916908361ffff16021790555060c08201518160040160046101000a81548161ffff021916908361ffff16021790555060e0820151816005019081620002dc91906200062e565b5090505062000715565b600033905090565b6000600660009054906101000a900473ffffffffffffffffffffffffffffffffffffffff16905081600660006101000a81548173ffffffffffffffffffffffffffffffffffffffff021916908373ffffffffffffffffffffffffffffffffffffffff1602179055508173ffffffffffffffffffffffffffffffffffffffff168173ffffffffffffffffffffffffffffffffffffffff167f8be0079c531659141344cd1fd0a4f28419497f9722a3daafe3b4186f6b6457e060405160405180910390a35050565b600081519050919050565b7f4e487b7100000000000000000000000000000000000000000000000000000000600052604160045260246000fd5b7f4e487b7100000000000000000000000000000000000000000000000000000000600052602260045260246000fd5b600060028204905060018216806200043657607f821691505b6020821081036200044c576200044b620003ee565b5b50919050565b60008190508160005260206000209050919050565b60006020601f8301049050919050565b600082821b905092915050565b600060088302620004b67fffffffffffffffffffffffffffffffffffffffffffffffffffffffffffffffff8262000477565b620004c2868362000477565b95508019841693508086168417925050509392505050565b6000819050919050565b6000819050919050565b60006200050f620005096200050384620004da565b620004e4565b620004da565b9050919050565b6000819050919050565b6200052b83620004ee565b620005436200053a8262000516565b84845462000484565b825550505050565b600090565b6200055a6200054b565b6200056781848462000520565b505050565b5b818110156200058f576200058360008262000550565b6001810190506200056d565b5050565b601f821115620005de57620005a88162000452565b620005b38462000467565b81016020851015620005c3578190505b620005db620005d28562000467565b8301826200056c565b50505b505050565b600082821c905092915050565b60006200060360001984600802620005e3565b1980831691505092915050565b60006200061e8383620005f0565b9150826002028217905092915050565b6200063982620003b4565b67ffffffffffffffff811115620006555762000654620003bf565b5b6200066182546200041d565b6200066e82828562000593565b600060209050601f831160018114620006a6576000841562000691578287015190505b6200069d858262000610565b8655506200070d565b601f198416620006b68662000452565b60005b82811015620006e057848901518255600182019150602085019450602081019050620006b9565b86831015620007005784890151620006fc601f891682620005f0565b8355505b6001600288020188555050505b505050505050565b615f5780620007256000396000f3fe608060405234801561001057600080fd5b50600436106102275760003560e01c806370a0823111610130578063a908dc62116100b8578063e985e9c51161007c578063e985e9c5146106e0578063eabb377214610710578063f099556014610749578063f1a3e5fb14610779578063f2fde38b146107a957610227565b8063a908dc621461062a578063b6b55d4f14610646578063b88d4fde14610664578063c87b56dd14610680578063cd1e9e2b146106b057610227565b8063863473f4116100ff578063863473f41461059a5780638da5cb5b146105b657806395d89b41146105d4578063a22cb465146105f2578063a9059cbb1461060e57610227565b806370a08231146104f9578063715018a6146105295780637b28c5b3146105335780637bd3a79f1461056a57610227565b806323b872dd116101b3578063432bd00c11610182578063432bd00c14610402578063450efe2114610432578063603698da146104625780636352211e146104925780636f77926b146104c257610227565b806323b872dd1461037e57806325ae13e81461039a5780633a1024ee146103ca57806342842e0e146103e657610227565b8063095ea7b3116101fa578063095ea7b3146102da5780630afad82d146102f65780630c47a792146103145780631cce73e4146103325780631d6a50cf1461036257610227565b806301ffc9a71461022c57806306ead22e1461025c57806306fdde031461028c578063081812fc146102aa575b600080fd5b610246600480360381019061024191906144c7565b6107c5565b604051610253919061450f565b60405180910390f35b61027660048036038101906102719190614560565b6108a7565b60405161028391906145ce565b60405180910390f35b6102946108da565b6040516102a19190614679565b60405180910390f35b6102c460048036038101906102bf9190614560565b61096c565b6040516102d191906145ce565b60405180910390f35b6102f460048036038101906102ef91906146c7565b6109b2565b005b6102fe610ac9565b60405161030b9190614716565b60405180910390f35b61031c610acf565b6040516103299190614716565b60405180910390f35b61034c60048036038101906103479190614866565b610ad5565b60405161035991906145ce565b60405180910390f35b61037c600480360381019061037791906148af565b610b1e565b005b6103986004803603810190610393919061490b565b610e48565b005b6103b460048036038101906103af9190614866565b610ea8565b6040516103c191906145ce565b60405180910390f35b6103e460048036038101906103df9190614998565b610ef0565b005b61040060048036038101906103fb919061490b565b6111b1565b005b61041c60048036038101906104179190614aaa565b6111d1565b6040516104299190614ae6565b60405180910390f35b61044c60048036038101906104479190614aaa565b6111f2565b6040516104599190614d21565b60405180910390f35b61047c600480360381019061047791906146c7565b6117f2565b6040516104899190614716565b60405180910390f35b6104ac60048036038101906104a79190614560565b611823565b6040516104b991906145ce565b60405180910390f35b6104dc60048036038101906104d79190614aaa565b6118a9565b6040516104f0989796959493929190614d43565b60405180910390f35b610513600480360381019061050e9190614aaa565b611c83565b6040516105209190614716565b60405180910390f35b610531611d3a565b005b61054d60048036038101906105489190614aaa565b611d4e565b604051610561989796959493929190614d43565b60405180910390f35b610584600480360381019061057f91906146c7565b612068565b6040516105919190614716565b60405180910390f35b6105b460048036038101906105af9190614de4565b612099565b005b6105be61252e565b6040516105cb91906145ce565b60405180910390f35b6105dc612558565b6040516105e99190614679565b60405180910390f35b61060c60048036038101906106079190614f06565b6125ea565b005b610628600480360381019061062391906146c7565b612600565b005b610644600480360381019061063f91906148af565b612b2c565b005b61064e612d46565b60405161065b9190614716565b60405180910390f35b61067e60048036038101906106799190614fe7565b612d4c565b005b61069a60048036038101906106959190614560565b612dae565b6040516106a79190614679565b60405180910390f35b6106ca60048036038101906106c59190614aaa565b612e16565b6040516106d7919061450f565b60405180910390f35b6106fa60048036038101906106f5919061506a565b612e36565b604051610707919061450f565b60405180910390f35b61072a60048036038101906107259190614560565b612eca565b6040516107409a999897969594939291906150aa565b60405180910390f35b610763600480360381019061075e9190614aaa565b6131f0565b604051610770919061450f565b60405180910390f35b610793600480360381019061078e9190614aaa565b613210565b6040516107a09190614ae6565b60405180910390f35b6107c360048036038101906107be9190614aaa565b613231565b005b60007f80ac58cd000000000000000000000000000000000000000000000000000000007bffffffffffffffffffffffffffffffffffffffffffffffffffffffff1916827bffffffffffffffffffffffffffffffffffffffffffffffffffffffff1916148061089057507f5b5e139f000000000000000000000000000000000000000000000000000000007bffffffffffffffffffffffffffffffffffffffffffffffffffffffff1916827bffffffffffffffffffffffffffffffffffffffffffffffffffffffff1916145b806108a0575061089f826132b4565b5b9050919050565b600a6020528060005260406000206000915054906101000a900473ffffffffffffffffffffffffffffffffffffffff1681565b6060600080546108e990615198565b80601f016020809104026020016040519081016040528092919081815260200182805461091590615198565b80156109625780601f1061093757610100808354040283529160200191610962565b820191906000526020600020905b81548152906001019060200180831161094557829003601f168201915b5050505050905090565b60006109778261331e565b6004600083815260200190815260200160002060009054906101000a900473ffffffffffffffffffffffffffffffffffffffff169050919050565b60006109bd82611823565b90508073ffffffffffffffffffffffffffffffffffffffff168373ffffffffffffffffffffffffffffffffffffffff1603610a2d576040517f08c379a0000000000000000000000000000000000000000000000000000000008152600401610a249061523b565b60405180910390fd5b8073ffffffffffffffffffffffffffffffffffffffff16610a4c613369565b73ffffffffffffffffffffffffffffffffffffffff161480610a7b5750610a7a81610a75613369565b612e36565b5b610aba576040517f08c379a0000000000000000000000000000000000000000000000000000000008152600401610ab1906152cd565b60405180910390fd5b610ac48383613371565b505050565b60095481565b60075481565b600d818051602081018201805184825260208301602085012081835280955050505050506000915054906101000a900473ffffffffffffffffffffffffffffffffffffffff1681565b610b273361342a565b610b66576040517f08c379a0000000000000000000000000000000000000000000000000000000008152600401610b5d90615339565b60405180910390fd5b6000601360003373ffffffffffffffffffffffffffffffffffffffff1673ffffffffffffffffffffffffffffffffffffffff1681526020019081526020016000206002018054610bb590615198565b80601f0160208091040260200160405190810160405280929190818152602001828054610be190615198565b8015610c2e5780601f10610c0357610100808354040283529160200191610c2e565b820191906000526020600020905b815481529060010190602001808311610c1157829003601f168201915b505050505090506001600c60008573ffffffffffffffffffffffffffffffffffffffff1673ffffffffffffffffffffffffffffffffffffffff16815260200190815260200160002060006101000a81548160ff0219169083151502179055506040518061010001604052806040518060400160405280600481526020017f70726f66000000000000000000000000000000000000000000000000000000008152508152602001604051806020016040528060008152508152602001838152602001604051806020016040528060008152508152602001600161ffff168152602001600161ffff16815260200161076c61ffff16815260200182815250601360008573ffffffffffffffffffffffffffffffffffffffff1673ffffffffffffffffffffffffffffffffffffffff1681526020019081526020016000206000820151816000019081610d7e9190615505565b506020820151816001019081610d949190615505565b506040820151816002019081610daa9190615505565b506060820151816003019081610dc09190615505565b5060808201518160040160006101000a81548161ffff021916908361ffff16021790555060a08201518160040160026101000a81548161ffff021916908361ffff16021790555060c08201518160040160046101000a81548161ffff021916908361ffff16021790555060e0820151816005019081610e3f9190615505565b50905050505050565b610e59610e53613369565b82613480565b610e98576040517f08c379a0000000000000000000000000000000000000000000000000000000008152600401610e8f90615649565b60405180910390fd5b610ea3838383613515565b505050565b6000600d82604051610eba91906156a5565b908152602001604051809103902060009054906101000a900473ffffffffffffffffffffffffffffffffffffffff169050919050565b610ef93361342a565b158015610f0c5750610f0a3361380e565b155b610f4b576040517f08c379a0000000000000000000000000000000000000000000000000000000008152600401610f4290615708565b60405180910390fd5b6040518061010001604052806040518060400160405280600781526020017f73747564656e740000000000000000000000000000000000000000000000000081525081526020018881526020018781526020018681526020018561ffff1681526020018461ffff1681526020018361ffff16815260200182815250601360003373ffffffffffffffffffffffffffffffffffffffff1673ffffffffffffffffffffffffffffffffffffffff168152602001908152602001600020600082015181600001908161101a9190615505565b5060208201518160010190816110309190615505565b5060408201518160020190816110469190615505565b50606082015181600301908161105c9190615505565b5060808201518160040160006101000a81548161ffff021916908361ffff16021790555060a08201518160040160026101000a81548161ffff021916908361ffff16021790555060c08201518160040160046101000a81548161ffff021916908361ffff16021790555060e08201518160050190816110db9190615505565b5090505033600d886040516110f091906156a5565b908152602001604051809103902060006101000a81548173ffffffffffffffffffffffffffffffffffffffff021916908373ffffffffffffffffffffffffffffffffffffffff16021790555033600a6000600954815260200190815260200160002060006101000a81548173ffffffffffffffffffffffffffffffffffffffff021916908373ffffffffffffffffffffffffffffffffffffffff160217905550600960008154809291906111a390615757565b919050555050505050505050565b6111cc83838360405180602001604052806000815250612d4c565b505050565b60106020528060005260406000206000915054906101000a900461ffff1681565b6060806000600e60008573ffffffffffffffffffffffffffffffffffffffff1673ffffffffffffffffffffffffffffffffffffffff16815260200190815260200160002060009054906101000a900461ffff1661ffff1611156112e457600f60008473ffffffffffffffffffffffffffffffffffffffff1673ffffffffffffffffffffffffffffffffffffffff1681526020019081526020016000208054806020026020016040519081016040528092919081815260200182805480156112d857602002820191906000526020600020905b8154815260200190600101908083116112c4575b505050505090506113d0565b6000601060008573ffffffffffffffffffffffffffffffffffffffff1673ffffffffffffffffffffffffffffffffffffffff16815260200190815260200160002060009054906101000a900461ffff1661ffff1611156113cf57601160008473ffffffffffffffffffffffffffffffffffffffff1673ffffffffffffffffffffffffffffffffffffffff1681526020019081526020016000208054806020026020016040519081016040528092919081815260200182805480156113c757602002820191906000526020600020905b8154815260200190600101908083116113b3575b505050505090505b5b805167ffffffffffffffff8111156113eb576113ea61473b565b5b60405190808252806020026020018201604052801561142457816020015b611411614392565b8152602001906001900390816114095790505b50915060005b81518110156117eb576012600083838151811061144a5761144961579f565b5b6020026020010151815260200190815260200160002060405180610140016040529081600082015481526020016001820160009054906101000a900461ffff1661ffff1661ffff1681526020016001820160029054906101000a900461ffff1661ffff1661ffff1681526020016001820160049054906101000a900461ffff1661ffff1661ffff1681526020016002820180546114e690615198565b80601f016020809104026020016040519081016040528092919081815260200182805461151290615198565b801561155f5780601f106115345761010080835404028352916020019161155f565b820191906000526020600020905b81548152906001019060200180831161154257829003601f168201915b5050505050815260200160038201805461157890615198565b80601f01602080910402602001604051908101604052809291908181526020018280546115a490615198565b80156115f15780601f106115c6576101008083540402835291602001916115f1565b820191906000526020600020905b8154815290600101906020018083116115d457829003601f168201915b5050505050815260200160048201805461160a90615198565b80601f016020809104026020016040519081016040528092919081815260200182805461163690615198565b80156116835780601f1061165857610100808354040283529160200191611683565b820191906000526020600020905b81548152906001019060200180831161166657829003601f168201915b5050505050815260200160058201805461169c90615198565b80601f01602080910402602001604051908101604052809291908181526020018280546116c890615198565b80156117155780601f106116ea57610100808354040283529160200191611715565b820191906000526020600020905b8154815290600101906020018083116116f857829003601f168201915b5050505050815260200160068201805461172e90615198565b80601f016020809104026020016040519081016040528092919081815260200182805461175a90615198565b80156117a75780601f1061177c576101008083540402835291602001916117a7565b820191906000526020600020905b81548152906001019060200180831161178a57829003601f168201915b505050505081526020016007820154815250508382815181106117cd576117cc61579f565b5b602002602001018190525080806117e390615757565b91505061142a565b5050919050565b6011602052816000526040600020818154811061180e57600080fd5b90600052602060002001600091509150505481565b60008061182f83613864565b9050600073ffffffffffffffffffffffffffffffffffffffff168173ffffffffffffffffffffffffffffffffffffffff16036118a0576040517f08c379a00000000000000000000000000000000000000000000000000000000081526004016118979061581a565b60405180910390fd5b80915050919050565b606080606080600080600060606000601360008b73ffffffffffffffffffffffffffffffffffffffff1673ffffffffffffffffffffffffffffffffffffffff1681526020019081526020016000206040518061010001604052908160008201805461191390615198565b80601f016020809104026020016040519081016040528092919081815260200182805461193f90615198565b801561198c5780601f106119615761010080835404028352916020019161198c565b820191906000526020600020905b81548152906001019060200180831161196f57829003601f168201915b505050505081526020016001820180546119a590615198565b80601f01602080910402602001604051908101604052809291908181526020018280546119d190615198565b8015611a1e5780601f106119f357610100808354040283529160200191611a1e565b820191906000526020600020905b815481529060010190602001808311611a0157829003601f168201915b50505050508152602001600282018054611a3790615198565b80601f0160208091040260200160405190810160405280929190818152602001828054611a6390615198565b8015611ab05780601f10611a8557610100808354040283529160200191611ab0565b820191906000526020600020905b815481529060010190602001808311611a9357829003601f168201915b50505050508152602001600382018054611ac990615198565b80601f0160208091040260200160405190810160405280929190818152602001828054611af590615198565b8015611b425780601f10611b1757610100808354040283529160200191611b42565b820191906000526020600020905b815481529060010190602001808311611b2557829003601f168201915b505050505081526020016004820160009054906101000a900461ffff1661ffff1661ffff1681526020016004820160029054906101000a900461ffff1661ffff1661ffff1681526020016004820160049054906101000a900461ffff1661ffff1661ffff168152602001600582018054611bbb90615198565b80601f0160208091040260200160405190810160405280929190818152602001828054611be790615198565b8015611c345780601f10611c0957610100808354040283529160200191611c34565b820191906000526020600020905b815481529060010190602001808311611c1757829003601f168201915b505050505081525050905080600001519850806020015197508060400151965080606001519550806080015194508060a0015193508060c0015192508060e00151915050919395975091939597565b60008073ffffffffffffffffffffffffffffffffffffffff168273ffffffffffffffffffffffffffffffffffffffff1603611cf3576040517f08c379a0000000000000000000000000000000000000000000000000000000008152600401611cea906158ac565b60405180910390fd5b600360008373ffffffffffffffffffffffffffffffffffffffff1673ffffffffffffffffffffffffffffffffffffffff168152602001908152602001600020549050919050565b611d426138a1565b611d4c600061391f565b565b6013602052806000526040600020600091509050806000018054611d7190615198565b80601f0160208091040260200160405190810160405280929190818152602001828054611d9d90615198565b8015611dea5780601f10611dbf57610100808354040283529160200191611dea565b820191906000526020600020905b815481529060010190602001808311611dcd57829003601f168201915b505050505090806001018054611dff90615198565b80601f0160208091040260200160405190810160405280929190818152602001828054611e2b90615198565b8015611e785780601f10611e4d57610100808354040283529160200191611e78565b820191906000526020600020905b815481529060010190602001808311611e5b57829003601f168201915b505050505090806002018054611e8d90615198565b80601f0160208091040260200160405190810160405280929190818152602001828054611eb990615198565b8015611f065780601f10611edb57610100808354040283529160200191611f06565b820191906000526020600020905b815481529060010190602001808311611ee957829003601f168201915b505050505090806003018054611f1b90615198565b80601f0160208091040260200160405190810160405280929190818152602001828054611f4790615198565b8015611f945780601f10611f6957610100808354040283529160200191611f94565b820191906000526020600020905b815481529060010190602001808311611f7757829003601f168201915b5050505050908060040160009054906101000a900461ffff16908060040160029054906101000a900461ffff16908060040160049054906101000a900461ffff1690806005018054611fe590615198565b80601f016020809104026020016040519081016040528092919081815260200182805461201190615198565b801561205e5780601f106120335761010080835404028352916020019161205e565b820191906000526020600020905b81548152906001019060200180831161204157829003601f168201915b5050505050905088565b600f602052816000526040600020818154811061208457600080fd5b90600052602060002001600091509150505481565b60005b8761ffff1681101561250c576120b13361380e565b6120f0576040517f08c379a00000000000000000000000000000000000000000000000000000000081526004016120e790615918565b60405180910390fd5b6000601360003373ffffffffffffffffffffffffffffffffffffffff1673ffffffffffffffffffffffffffffffffffffffff168152602001908152602001600020600201805461213f90615198565b80601f016020809104026020016040519081016040528092919081815260200182805461216b90615198565b80156121b85780601f1061218d576101008083540402835291602001916121b8565b820191906000526020600020905b81548152906001019060200180831161219b57829003601f168201915b505050505090506000601360003373ffffffffffffffffffffffffffffffffffffffff1673ffffffffffffffffffffffffffffffffffffffff168152602001908152602001600020600501805461220e90615198565b80601f016020809104026020016040519081016040528092919081815260200182805461223a90615198565b80156122875780601f1061225c57610100808354040283529160200191612287565b820191906000526020600020905b81548152906001019060200180831161226a57829003601f168201915b50505050509050600060075490506040518061014001604052808281526020018b61ffff1681526020018a61ffff1681526020018961ffff1681526020018881526020018781526020018381526020018481526020018681526020016008548152506012600060075481526020019081526020016000206000820151816000015560208201518160010160006101000a81548161ffff021916908361ffff16021790555060408201518160010160026101000a81548161ffff021916908361ffff16021790555060608201518160010160046101000a81548161ffff021916908361ffff16021790555060808201518160020190816123869190615505565b5060a082015181600301908161239c9190615505565b5060c08201518160040190816123b29190615505565b5060e08201518160050190816123c89190615505565b506101008201518160060190816123df9190615505565b506101208201518160070155905050600060075490506123ff33826139e5565b6007600081548092919061241290615757565b9190505550601160003373ffffffffffffffffffffffffffffffffffffffff1673ffffffffffffffffffffffffffffffffffffffff168152602001908152602001600020819080600181540180825580915050600190039060005260206000200160009091909190915055601060003373ffffffffffffffffffffffffffffffffffffffff1673ffffffffffffffffffffffffffffffffffffffff168152602001908152602001600020600081819054906101000a900461ffff16809291906124da90615938565b91906101000a81548161ffff021916908361ffff1602179055505050505050808061250490615757565b91505061209c565b506008600081548092919061252090615757565b919050555050505050505050565b6000600660009054906101000a900473ffffffffffffffffffffffffffffffffffffffff16905090565b60606001805461256790615198565b80601f016020809104026020016040519081016040528092919081815260200182805461259390615198565b80156125e05780601f106125b5576101008083540402835291602001916125e0565b820191906000526020600020905b8154815290600101906020018083116125c357829003601f168201915b5050505050905090565b6125fc6125f5613369565b8383613a03565b5050565b6126093361380e565b612648576040517f08c379a000000000000000000000000000000000000000000000000000000000815260040161263f90615918565b60405180910390fd5b612653338383613515565b600f60008373ffffffffffffffffffffffffffffffffffffffff1673ffffffffffffffffffffffffffffffffffffffff168152602001908152602001600020819080600181540180825580915050600190039060005260206000200160009091909190915055600e60008373ffffffffffffffffffffffffffffffffffffffff1673ffffffffffffffffffffffffffffffffffffffff168152602001908152602001600020600081819054906101000a900461ffff168092919061271690615938565b91906101000a81548161ffff021916908361ffff1602179055505060005b6001601160003373ffffffffffffffffffffffffffffffffffffffff1673ffffffffffffffffffffffffffffffffffffffff168152602001908152602001600020805490506127839190615962565b81116128645781601160003373ffffffffffffffffffffffffffffffffffffffff1673ffffffffffffffffffffffffffffffffffffffff16815260200190815260200160002082815481106127db576127da61579f565b5b906000526020600020015403612851576000601160003373ffffffffffffffffffffffffffffffffffffffff1673ffffffffffffffffffffffffffffffffffffffff168152602001908152602001600020828154811061283e5761283d61579f565b5b9060005260206000200181905550612864565b808061285c90615757565b915050612734565b50601060003373ffffffffffffffffffffffffffffffffffffffff1673ffffffffffffffffffffffffffffffffffffffff168152602001908152602001600020600081819054906101000a900461ffff16809291906128c290615996565b91906101000a81548161ffff021916908361ffff1602179055505060006001601160003373ffffffffffffffffffffffffffffffffffffffff1673ffffffffffffffffffffffffffffffffffffffff1681526020019081526020016000208054905061292e9190615962565b67ffffffffffffffff8111156129475761294661473b565b5b6040519080825280602002602001820160405280156129755781602001602082028036833780820191505090505b5090506000805b6001601160003373ffffffffffffffffffffffffffffffffffffffff1673ffffffffffffffffffffffffffffffffffffffff168152602001908152602001600020805490506129cb9190615962565b8111612ad1576000601160003373ffffffffffffffffffffffffffffffffffffffff1673ffffffffffffffffffffffffffffffffffffffff1681526020019081526020016000208281548110612a2457612a2361579f565b5b906000526020600020015414612abe57601160003373ffffffffffffffffffffffffffffffffffffffff1673ffffffffffffffffffffffffffffffffffffffff1681526020019081526020016000208181548110612a8557612a8461579f565b5b9060005260206000200154838381518110612aa357612aa261579f565b5b6020026020010181815250508180612aba90615757565b9250505b8080612ac990615757565b91505061297c565b5081601160003373ffffffffffffffffffffffffffffffffffffffff1673ffffffffffffffffffffffffffffffffffffffff1681526020019081526020016000209080519060200190612b259291906143f1565b5050505050565b612b346138a1565b6001600b60008473ffffffffffffffffffffffffffffffffffffffff1673ffffffffffffffffffffffffffffffffffffffff16815260200190815260200160002060006101000a81548160ff0219169083151502179055506040518061010001604052806040518060400160405280600381526020017f756e6900000000000000000000000000000000000000000000000000000000008152508152602001604051806020016040528060008152508152602001828152602001604051806020016040528060008152508152602001600161ffff168152602001600161ffff16815260200161076c61ffff16815260200182815250601360008473ffffffffffffffffffffffffffffffffffffffff1673ffffffffffffffffffffffffffffffffffffffff1681526020019081526020016000206000820151816000019081612c7d9190615505565b506020820151816001019081612c939190615505565b506040820151816002019081612ca99190615505565b506060820151816003019081612cbf9190615505565b5060808201518160040160006101000a81548161ffff021916908361ffff16021790555060a08201518160040160026101000a81548161ffff021916908361ffff16021790555060c08201518160040160046101000a81548161ffff021916908361ffff16021790555060e0820151816005019081612d3e9190615505565b509050505050565b60085481565b612d5d612d57613369565b83613480565b612d9c576040517f08c379a0000000000000000000000000000000000000000000000000000000008152600401612d9390615649565b60405180910390fd5b612da884848484613b6f565b50505050565b6060612db98261331e565b6000612dc3613bcb565b90506000815111612de35760405180602001604052806000815250612e0e565b80612ded84613be2565b604051602001612dfe9291906159bf565b6040516020818303038152906040525b915050919050565b600c6020528060005260406000206000915054906101000a900460ff1681565b6000600560008473ffffffffffffffffffffffffffffffffffffffff1673ffffffffffffffffffffffffffffffffffffffff16815260200190815260200160002060008373ffffffffffffffffffffffffffffffffffffffff1673ffffffffffffffffffffffffffffffffffffffff16815260200190815260200160002060009054906101000a900460ff16905092915050565b60126020528060005260406000206000915090508060000154908060010160009054906101000a900461ffff16908060010160029054906101000a900461ffff16908060010160049054906101000a900461ffff1690806002018054612f2f90615198565b80601f0160208091040260200160405190810160405280929190818152602001828054612f5b90615198565b8015612fa85780601f10612f7d57610100808354040283529160200191612fa8565b820191906000526020600020905b815481529060010190602001808311612f8b57829003601f168201915b505050505090806003018054612fbd90615198565b80601f0160208091040260200160405190810160405280929190818152602001828054612fe990615198565b80156130365780601f1061300b57610100808354040283529160200191613036565b820191906000526020600020905b81548152906001019060200180831161301957829003601f168201915b50505050509080600401805461304b90615198565b80601f016020809104026020016040519081016040528092919081815260200182805461307790615198565b80156130c45780601f10613099576101008083540402835291602001916130c4565b820191906000526020600020905b8154815290600101906020018083116130a757829003601f168201915b5050505050908060050180546130d990615198565b80601f016020809104026020016040519081016040528092919081815260200182805461310590615198565b80156131525780601f1061312757610100808354040283529160200191613152565b820191906000526020600020905b81548152906001019060200180831161313557829003601f168201915b50505050509080600601805461316790615198565b80601f016020809104026020016040519081016040528092919081815260200182805461319390615198565b80156131e05780601f106131b5576101008083540402835291602001916131e0565b820191906000526020600020905b8154815290600101906020018083116131c357829003601f168201915b505050505090806007015490508a565b600b6020528060005260406000206000915054906101000a900460ff1681565b600e6020528060005260406000206000915054906101000a900461ffff1681565b6132396138a1565b600073ffffffffffffffffffffffffffffffffffffffff168173ffffffffffffffffffffffffffffffffffffffff16036132a8576040517f08c379a000000000000000000000000000000000000000000000000000000000815260040161329f90615a55565b60405180910390fd5b6132b18161391f565b50565b60007f01ffc9a7000000000000000000000000000000000000000000000000000000007bffffffffffffffffffffffffffffffffffffffffffffffffffffffff1916827bffffffffffffffffffffffffffffffffffffffffffffffffffffffff1916149050919050565b61332781613cb0565b613366576040517f08c379a000000000000000000000000000000000000000000000000000000000815260040161335d9061581a565b60405180910390fd5b50565b600033905090565b816004600083815260200190815260200160002060006101000a81548173ffffffffffffffffffffffffffffffffffffffff021916908373ffffffffffffffffffffffffffffffffffffffff160217905550808273ffffffffffffffffffffffffffffffffffffffff166133e483611823565b73ffffffffffffffffffffffffffffffffffffffff167f8c5be1e5ebec7d5bd14f71427d1e84f3dd0314c0f7b2291e5b200ac8c7c3b92560405160405180910390a45050565b6000600b60008373ffffffffffffffffffffffffffffffffffffffff1673ffffffffffffffffffffffffffffffffffffffff16815260200190815260200160002060009054906101000a900460ff169050919050565b60008061348c83611823565b90508073ffffffffffffffffffffffffffffffffffffffff168473ffffffffffffffffffffffffffffffffffffffff1614806134ce57506134cd8185612e36565b5b8061350c57508373ffffffffffffffffffffffffffffffffffffffff166134f48461096c565b73ffffffffffffffffffffffffffffffffffffffff16145b91505092915050565b8273ffffffffffffffffffffffffffffffffffffffff1661353582611823565b73ffffffffffffffffffffffffffffffffffffffff161461358b576040517f08c379a000000000000000000000000000000000000000000000000000000000815260040161358290615ae7565b60405180910390fd5b600073ffffffffffffffffffffffffffffffffffffffff168273ffffffffffffffffffffffffffffffffffffffff16036135fa576040517f08c379a00000000000000000000000000000000000000000000000000000000081526004016135f190615b79565b60405180910390fd5b6136078383836001613cf1565b8273ffffffffffffffffffffffffffffffffffffffff1661362782611823565b73ffffffffffffffffffffffffffffffffffffffff161461367d576040517f08c379a000000000000000000000000000000000000000000000000000000000815260040161367490615ae7565b60405180910390fd5b6004600082815260200190815260200160002060006101000a81549073ffffffffffffffffffffffffffffffffffffffff02191690556001600360008573ffffffffffffffffffffffffffffffffffffffff1673ffffffffffffffffffffffffffffffffffffffff168152602001908152602001600020600082825403925050819055506001600360008473ffffffffffffffffffffffffffffffffffffffff1673ffffffffffffffffffffffffffffffffffffffff16815260200190815260200160002060008282540192505081905550816002600083815260200190815260200160002060006101000a81548173ffffffffffffffffffffffffffffffffffffffff021916908373ffffffffffffffffffffffffffffffffffffffff160217905550808273ffffffffffffffffffffffffffffffffffffffff168473ffffffffffffffffffffffffffffffffffffffff167fddf252ad1be2c89b69c2b068fc378daa952ba7f163c4a11628f55a4df523b3ef60405160405180910390a46138098383836001613e17565b505050565b6000600c60008373ffffffffffffffffffffffffffffffffffffffff1673ffffffffffffffffffffffffffffffffffffffff16815260200190815260200160002060009054906101000a900460ff169050919050565b60006002600083815260200190815260200160002060009054906101000a900473ffffffffffffffffffffffffffffffffffffffff169050919050565b6138a9613369565b73ffffffffffffffffffffffffffffffffffffffff166138c761252e565b73ffffffffffffffffffffffffffffffffffffffff161461391d576040517f08c379a000000000000000000000000000000000000000000000000000000000815260040161391490615be5565b60405180910390fd5b565b6000600660009054906101000a900473ffffffffffffffffffffffffffffffffffffffff16905081600660006101000a81548173ffffffffffffffffffffffffffffffffffffffff021916908373ffffffffffffffffffffffffffffffffffffffff1602179055508173ffffffffffffffffffffffffffffffffffffffff168173ffffffffffffffffffffffffffffffffffffffff167f8be0079c531659141344cd1fd0a4f28419497f9722a3daafe3b4186f6b6457e060405160405180910390a35050565b6139ff828260405180602001604052806000815250613e1d565b5050565b8173ffffffffffffffffffffffffffffffffffffffff168373ffffffffffffffffffffffffffffffffffffffff1603613a71576040517f08c379a0000000000000000000000000000000000000000000000000000000008152600401613a6890615c51565b60405180910390fd5b80600560008573ffffffffffffffffffffffffffffffffffffffff1673ffffffffffffffffffffffffffffffffffffffff16815260200190815260200160002060008473ffffffffffffffffffffffffffffffffffffffff1673ffffffffffffffffffffffffffffffffffffffff16815260200190815260200160002060006101000a81548160ff0219169083151502179055508173ffffffffffffffffffffffffffffffffffffffff168373ffffffffffffffffffffffffffffffffffffffff167f17307eab39ab6107e8899845ad3d59bd9653f200f220920489ca2b5937696c3183604051613b62919061450f565b60405180910390a3505050565b613b7a848484613515565b613b8684848484613e78565b613bc5576040517f08c379a0000000000000000000000000000000000000000000000000000000008152600401613bbc90615ce3565b60405180910390fd5b50505050565b606060405180602001604052806000815250905090565b606060006001613bf184613fff565b01905060008167ffffffffffffffff811115613c1057613c0f61473b565b5b6040519080825280601f01601f191660200182016040528015613c425781602001600182028036833780820191505090505b509050600082602001820190505b600115613ca5578080600190039150507f3031323334353637383961626364656600000000000000000000000000000000600a86061a8153600a8581613c9957613c98615d03565b5b04945060008503613c50575b819350505050919050565b60008073ffffffffffffffffffffffffffffffffffffffff16613cd283613864565b73ffffffffffffffffffffffffffffffffffffffff1614159050919050565b6001811115613e1157600073ffffffffffffffffffffffffffffffffffffffff168473ffffffffffffffffffffffffffffffffffffffff1614613d855780600360008673ffffffffffffffffffffffffffffffffffffffff1673ffffffffffffffffffffffffffffffffffffffff1681526020019081526020016000206000828254613d7d9190615962565b925050819055505b600073ffffffffffffffffffffffffffffffffffffffff168373ffffffffffffffffffffffffffffffffffffffff1614613e105780600360008573ffffffffffffffffffffffffffffffffffffffff1673ffffffffffffffffffffffffffffffffffffffff1681526020019081526020016000206000828254613e089190615d32565b925050819055505b5b50505050565b50505050565b613e278383614152565b613e346000848484613e78565b613e73576040517f08c379a0000000000000000000000000000000000000000000000000000000008152600401613e6a90615ce3565b60405180910390fd5b505050565b6000613e998473ffffffffffffffffffffffffffffffffffffffff1661436f565b15613ff2578373ffffffffffffffffffffffffffffffffffffffff1663150b7a02613ec2613369565b8786866040518563ffffffff1660e01b8152600401613ee49493929190615dbb565b6020604051808303816000875af1925050508015613f2057506040513d601f19601f82011682018060405250810190613f1d9190615e1c565b60015b613fa2573d8060008114613f50576040519150601f19603f3d011682016040523d82523d6000602084013e613f55565b606091505b506000815103613f9a576040517f08c379a0000000000000000000000000000000000000000000000000000000008152600401613f9190615ce3565b60405180910390fd5b805181602001fd5b63150b7a0260e01b7bffffffffffffffffffffffffffffffffffffffffffffffffffffffff1916817bffffffffffffffffffffffffffffffffffffffffffffffffffffffff191614915050613ff7565b600190505b949350505050565b600080600090507a184f03e93ff9f4daa797ed6e38ed64bf6a1f010000000000000000831061405d577a184f03e93ff9f4daa797ed6e38ed64bf6a1f010000000000000000838161405357614052615d03565b5b0492506040810190505b6d04ee2d6d415b85acef8100000000831061409a576d04ee2d6d415b85acef810000000083816140905761408f615d03565b5b0492506020810190505b662386f26fc1000083106140c957662386f26fc1000083816140bf576140be615d03565b5b0492506010810190505b6305f5e10083106140f2576305f5e10083816140e8576140e7615d03565b5b0492506008810190505b612710831061411757612710838161410d5761410c615d03565b5b0492506004810190505b6064831061413a57606483816141305761412f615d03565b5b0492506002810190505b600a8310614149576001810190505b80915050919050565b600073ffffffffffffffffffffffffffffffffffffffff168273ffffffffffffffffffffffffffffffffffffffff16036141c1576040517f08c379a00000000000000000000000000000000000000000000000000000000081526004016141b890615e95565b60405180910390fd5b6141ca81613cb0565b1561420a576040517f08c379a000000000000000000000000000000000000000000000000000000000815260040161420190615f01565b60405180910390fd5b614218600083836001613cf1565b61422181613cb0565b15614261576040517f08c379a000000000000000000000000000000000000000000000000000000000815260040161425890615f01565b60405180910390fd5b6001600360008473ffffffffffffffffffffffffffffffffffffffff1673ffffffffffffffffffffffffffffffffffffffff16815260200190815260200160002060008282540192505081905550816002600083815260200190815260200160002060006101000a81548173ffffffffffffffffffffffffffffffffffffffff021916908373ffffffffffffffffffffffffffffffffffffffff160217905550808273ffffffffffffffffffffffffffffffffffffffff16600073ffffffffffffffffffffffffffffffffffffffff167fddf252ad1be2c89b69c2b068fc378daa952ba7f163c4a11628f55a4df523b3ef60405160405180910390a461436b600083836001613e17565b5050565b6000808273ffffffffffffffffffffffffffffffffffffffff163b119050919050565b60405180610140016040528060008152602001600061ffff168152602001600061ffff168152602001600061ffff1681526020016060815260200160608152602001606081526020016060815260200160608152602001600081525090565b82805482825590600052602060002090810192821561442d579160200282015b8281111561442c578251825591602001919060010190614411565b5b50905061443a919061443e565b5090565b5b8082111561445757600081600090555060010161443f565b5090565b6000604051905090565b600080fd5b600080fd5b60007fffffffff0000000000000000000000000000000000000000000000000000000082169050919050565b6144a48161446f565b81146144af57600080fd5b50565b6000813590506144c18161449b565b92915050565b6000602082840312156144dd576144dc614465565b5b60006144eb848285016144b2565b91505092915050565b60008115159050919050565b614509816144f4565b82525050565b60006020820190506145246000830184614500565b92915050565b6000819050919050565b61453d8161452a565b811461454857600080fd5b50565b60008135905061455a81614534565b92915050565b60006020828403121561457657614575614465565b5b60006145848482850161454b565b91505092915050565b600073ffffffffffffffffffffffffffffffffffffffff82169050919050565b60006145b88261458d565b9050919050565b6145c8816145ad565b82525050565b60006020820190506145e360008301846145bf565b92915050565b600081519050919050565b600082825260208201905092915050565b60005b83811015614623578082015181840152602081019050614608565b60008484015250505050565b6000601f19601f8301169050919050565b600061464b826145e9565b61465581856145f4565b9350614665818560208601614605565b61466e8161462f565b840191505092915050565b600060208201905081810360008301526146938184614640565b905092915050565b6146a4816145ad565b81146146af57600080fd5b50565b6000813590506146c18161469b565b92915050565b600080604083850312156146de576146dd614465565b5b60006146ec858286016146b2565b92505060206146fd8582860161454b565b9150509250929050565b6147108161452a565b82525050565b600060208201905061472b6000830184614707565b92915050565b600080fd5b600080fd5b7f4e487b7100000000000000000000000000000000000000000000000000000000600052604160045260246000fd5b6147738261462f565b810181811067ffffffffffffffff821117156147925761479161473b565b5b80604052505050565b60006147a561445b565b90506147b1828261476a565b919050565b600067ffffffffffffffff8211156147d1576147d061473b565b5b6147da8261462f565b9050602081019050919050565b82818337600083830152505050565b6000614809614804846147b6565b61479b565b90508281526020810184848401111561482557614824614736565b5b6148308482856147e7565b509392505050565b600082601f83011261484d5761484c614731565b5b813561485d8482602086016147f6565b91505092915050565b60006020828403121561487c5761487b614465565b5b600082013567ffffffffffffffff81111561489a5761489961446a565b5b6148a684828501614838565b91505092915050565b600080604083850312156148c6576148c5614465565b5b60006148d4858286016146b2565b925050602083013567ffffffffffffffff8111156148f5576148f461446a565b5b61490185828601614838565b9150509250929050565b60008060006060848603121561492457614923614465565b5b6000614932868287016146b2565b9350506020614943868287016146b2565b92505060406149548682870161454b565b9150509250925092565b600061ffff82169050919050565b6149758161495e565b811461498057600080fd5b50565b6000813590506149928161496c565b92915050565b600080600080600080600060e0888a0312156149b7576149b6614465565b5b600088013567ffffffffffffffff8111156149d5576149d461446a565b5b6149e18a828b01614838565b975050602088013567ffffffffffffffff811115614a0257614a0161446a565b5b614a0e8a828b01614838565b965050604088013567ffffffffffffffff811115614a2f57614a2e61446a565b5b614a3b8a828b01614838565b9550506060614a4c8a828b01614983565b9450506080614a5d8a828b01614983565b93505060a0614a6e8a828b01614983565b92505060c088013567ffffffffffffffff811115614a8f57614a8e61446a565b5b614a9b8a828b01614838565b91505092959891949750929550565b600060208284031215614ac057614abf614465565b5b6000614ace848285016146b2565b91505092915050565b614ae08161495e565b82525050565b6000602082019050614afb6000830184614ad7565b92915050565b600081519050919050565b600082825260208201905092915050565b6000819050602082019050919050565b614b368161452a565b82525050565b614b458161495e565b82525050565b600082825260208201905092915050565b6000614b67826145e9565b614b718185614b4b565b9350614b81818560208601614605565b614b8a8161462f565b840191505092915050565b600061014083016000830151614bae6000860182614b2d565b506020830151614bc16020860182614b3c565b506040830151614bd46040860182614b3c565b506060830151614be76060860182614b3c565b5060808301518482036080860152614bff8282614b5c565b91505060a083015184820360a0860152614c198282614b5c565b91505060c083015184820360c0860152614c338282614b5c565b91505060e083015184820360e0860152614c4d8282614b5c565b915050610100830151848203610100860152614c698282614b5c565b915050610120830151614c80610120860182614b2d565b508091505092915050565b6000614c978383614b95565b905092915050565b6000602082019050919050565b6000614cb782614b01565b614cc18185614b0c565b935083602082028501614cd385614b1d565b8060005b85811015614d0f5784840389528151614cf08582614c8b565b9450614cfb83614c9f565b925060208a01995050600181019050614cd7565b50829750879550505050505092915050565b60006020820190508181036000830152614d3b8184614cac565b905092915050565b6000610100820190508181036000830152614d5e818b614640565b90508181036020830152614d72818a614640565b90508181036040830152614d868189614640565b90508181036060830152614d9a8188614640565b9050614da96080830187614ad7565b614db660a0830186614ad7565b614dc360c0830185614ad7565b81810360e0830152614dd58184614640565b90509998505050505050505050565b600080600080600080600060e0888a031215614e0357614e02614465565b5b6000614e118a828b01614983565b9750506020614e228a828b01614983565b9650506040614e338a828b01614983565b9550506060614e448a828b01614983565b945050608088013567ffffffffffffffff811115614e6557614e6461446a565b5b614e718a828b01614838565b93505060a088013567ffffffffffffffff811115614e9257614e9161446a565b5b614e9e8a828b01614838565b92505060c088013567ffffffffffffffff811115614ebf57614ebe61446a565b5b614ecb8a828b01614838565b91505092959891949750929550565b614ee3816144f4565b8114614eee57600080fd5b50565b600081359050614f0081614eda565b92915050565b60008060408385031215614f1d57614f1c614465565b5b6000614f2b858286016146b2565b9250506020614f3c85828601614ef1565b9150509250929050565b600067ffffffffffffffff821115614f6157614f6061473b565b5b614f6a8261462f565b9050602081019050919050565b6000614f8a614f8584614f46565b61479b565b905082815260208101848484011115614fa657614fa5614736565b5b614fb18482856147e7565b509392505050565b600082601f830112614fce57614fcd614731565b5b8135614fde848260208601614f77565b91505092915050565b6000806000806080858703121561500157615000614465565b5b600061500f878288016146b2565b9450506020615020878288016146b2565b93505060406150318782880161454b565b925050606085013567ffffffffffffffff8111156150525761505161446a565b5b61505e87828801614fb9565b91505092959194509250565b6000806040838503121561508157615080614465565b5b600061508f858286016146b2565b92505060206150a0858286016146b2565b9150509250929050565b6000610140820190506150c0600083018d614707565b6150cd602083018c614ad7565b6150da604083018b614ad7565b6150e7606083018a614ad7565b81810360808301526150f98189614640565b905081810360a083015261510d8188614640565b905081810360c08301526151218187614640565b905081810360e08301526151358186614640565b905081810361010083015261514a8185614640565b905061515a610120830184614707565b9b9a5050505050505050505050565b7f4e487b7100000000000000000000000000000000000000000000000000000000600052602260045260246000fd5b600060028204905060018216806151b057607f821691505b6020821081036151c3576151c2615169565b5b50919050565b7f4552433732313a20617070726f76616c20746f2063757272656e74206f776e6560008201527f7200000000000000000000000000000000000000000000000000000000000000602082015250565b60006152256021836145f4565b9150615230826151c9565b604082019050919050565b6000602082019050818103600083015261525481615218565b9050919050565b7f4552433732313a20617070726f76652063616c6c6572206973206e6f7420746f60008201527f6b656e206f776e6572206f7220617070726f76656420666f7220616c6c000000602082015250565b60006152b7603d836145f4565b91506152c28261525b565b604082019050919050565b600060208201905081810360008301526152e6816152aa565b9050919050565b7f4f4e4c5920554e49000000000000000000000000000000000000000000000000600082015250565b60006153236008836145f4565b915061532e826152ed565b602082019050919050565b6000602082019050818103600083015261535281615316565b9050919050565b60008190508160005260206000209050919050565b60006020601f8301049050919050565b600082821b905092915050565b6000600883026153bb7fffffffffffffffffffffffffffffffffffffffffffffffffffffffffffffffff8261537e565b6153c5868361537e565b95508019841693508086168417925050509392505050565b6000819050919050565b60006154026153fd6153f88461452a565b6153dd565b61452a565b9050919050565b6000819050919050565b61541c836153e7565b61543061542882615409565b84845461538b565b825550505050565b600090565b615445615438565b615450818484615413565b505050565b5b818110156154745761546960008261543d565b600181019050615456565b5050565b601f8211156154b95761548a81615359565b6154938461536e565b810160208510156154a2578190505b6154b66154ae8561536e565b830182615455565b50505b505050565b600082821c905092915050565b60006154dc600019846008026154be565b1980831691505092915050565b60006154f583836154cb565b9150826002028217905092915050565b61550e826145e9565b67ffffffffffffffff8111156155275761552661473b565b5b6155318254615198565b61553c828285615478565b600060209050601f83116001811461556f576000841561555d578287015190505b61556785826154e9565b8655506155cf565b601f19841661557d86615359565b60005b828110156155a557848901518255600182019150602085019450602081019050615580565b868310156155c257848901516155be601f8916826154cb565b8355505b6001600288020188555050505b505050505050565b7f4552433732313a2063616c6c6572206973206e6f7420746f6b656e206f776e6560008201527f72206f7220617070726f76656400000000000000000000000000000000000000602082015250565b6000615633602d836145f4565b915061563e826155d7565b604082019050919050565b6000602082019050818103600083015261566281615626565b9050919050565b600081905092915050565b600061567f826145e9565b6156898185615669565b9350615699818560208601614605565b80840191505092915050565b60006156b18284615674565b915081905092915050565b7f756e692f70726f662063616e27742062652073747564656e7400000000000000600082015250565b60006156f26019836145f4565b91506156fd826156bc565b602082019050919050565b60006020820190508181036000830152615721816156e5565b9050919050565b7f4e487b7100000000000000000000000000000000000000000000000000000000600052601160045260246000fd5b60006157628261452a565b91507fffffffffffffffffffffffffffffffffffffffffffffffffffffffffffffffff820361579457615793615728565b5b600182019050919050565b7f4e487b7100000000000000000000000000000000000000000000000000000000600052603260045260246000fd5b7f4552433732313a20696e76616c696420746f6b656e2049440000000000000000600082015250565b60006158046018836145f4565b915061580f826157ce565b602082019050919050565b60006020820190508181036000830152615833816157f7565b9050919050565b7f4552433732313a2061646472657373207a65726f206973206e6f74206120766160008201527f6c6964206f776e65720000000000000000000000000000000000000000000000602082015250565b60006158966029836145f4565b91506158a18261583a565b604082019050919050565b600060208201905081810360008301526158c581615889565b9050919050565b7f6e6f7420612070726f666573736f720000000000000000000000000000000000600082015250565b6000615902600f836145f4565b915061590d826158cc565b602082019050919050565b60006020820190508181036000830152615931816158f5565b9050919050565b60006159438261495e565b915061ffff820361595757615956615728565b5b600182019050919050565b600061596d8261452a565b91506159788361452a565b92508282039050818111156159905761598f615728565b5b92915050565b60006159a18261495e565b9150600082036159b4576159b3615728565b5b600182039050919050565b60006159cb8285615674565b91506159d78284615674565b91508190509392505050565b7f4f776e61626c653a206e6577206f776e657220697320746865207a65726f206160008201527f6464726573730000000000000000000000000000000000000000000000000000602082015250565b6000615a3f6026836145f4565b9150615a4a826159e3565b604082019050919050565b60006020820190508181036000830152615a6e81615a32565b9050919050565b7f4552433732313a207472616e736665722066726f6d20696e636f72726563742060008201527f6f776e6572000000000000000000000000000000000000000000000000000000602082015250565b6000615ad16025836145f4565b9150615adc82615a75565b604082019050919050565b60006020820190508181036000830152615b0081615ac4565b9050919050565b7f4552433732313a207472616e7366657220746f20746865207a65726f2061646460008201527f7265737300000000000000000000000000000000000000000000000000000000602082015250565b6000615b636024836145f4565b9150615b6e82615b07565b604082019050919050565b60006020820190508181036000830152615b9281615b56565b9050919050565b7f4f776e61626c653a2063616c6c6572206973206e6f7420746865206f776e6572600082015250565b6000615bcf6020836145f4565b9150615bda82615b99565b602082019050919050565b60006020820190508181036000830152615bfe81615bc2565b9050919050565b7f4552433732313a20617070726f766520746f2063616c6c657200000000000000600082015250565b6000615c3b6019836145f4565b9150615c4682615c05565b602082019050919050565b60006020820190508181036000830152615c6a81615c2e565b9050919050565b7f4552433732313a207472616e7366657220746f206e6f6e20455243373231526560008201527f63656976657220696d706c656d656e7465720000000000000000000000000000602082015250565b6000615ccd6032836145f4565b9150615cd882615c71565b604082019050919050565b60006020820190508181036000830152615cfc81615cc0565b9050919050565b7f4e487b7100000000000000000000000000000000000000000000000000000000600052601260045260246000fd5b6000615d3d8261452a565b9150615d488361452a565b9250828201905080821115615d6057615d5f615728565b5b92915050565b600081519050919050565b600082825260208201905092915050565b6000615d8d82615d66565b615d978185615d71565b9350615da7818560208601614605565b615db08161462f565b840191505092915050565b6000608082019050615dd060008301876145bf565b615ddd60208301866145bf565b615dea6040830185614707565b8181036060830152615dfc8184615d82565b905095945050505050565b600081519050615e168161449b565b92915050565b600060208284031215615e3257615e31614465565b5b6000615e4084828501615e07565b91505092915050565b7f4552433732313a206d696e7420746f20746865207a65726f2061646472657373600082015250565b6000615e7f6020836145f4565b9150615e8a82615e49565b602082019050919050565b60006020820190508181036000830152615eae81615e72565b9050919050565b7f4552433732313a20746f6b656e20616c7265616479206d696e74656400000000600082015250565b6000615eeb601c836145f4565b9150615ef682615eb5565b602082019050919050565b60006020820190508181036000830152615f1a81615ede565b905091905056fea2646970667358221220976e358141549cefb8eaad985c2ead6f66bbe81ac594e11e98e02e4582dee33e64736f6c63430008110033",
  "immutableReferences": {},
  "source": "// SPDX-License-Identifier: MIT\r\npragma solidity ^0.8.17;\r\n\r\nimport \"@openzeppelin/contracts/token/ERC721/ERC721.sol\";\r\nimport \"@openzeppelin/contracts/access/Ownable.sol\";\r\n\r\ncontract Certificate is ERC721, Ownable {\r\n    //event NFT_transfered(address professor, address student);\r\n\r\n    uint256 public numNFT;\r\n    uint256 public numSeries;\r\n    uint256 public numStudents;\r\n\r\n    mapping(uint256 => address) public students; //rauni tudentov\r\n    mapping(address => bool) public universities; //admin rauni univerz\r\n    mapping(address => bool) public professors; //rauni profesorjev\r\n\r\n    mapping(string => address) public studIdToAddr;\r\n\r\n    mapping(address => uint16) public studentTokenNum;\r\n    mapping(address => uint256[]) public studentTokens;\r\n    mapping(address => uint16) public profTokenNum;\r\n    mapping(address => uint256[]) public profTokens;\r\n\r\n    struct Metadata {\r\n        uint256 id;\r\n        uint16 day;\r\n        uint16 month;\r\n        uint16 year;\r\n        string title;\r\n        string description;\r\n        string university;\r\n        string professor;\r\n        string course;\r\n        uint256 seriesID;\r\n    }\r\n    mapping(uint256 => Metadata) public id_to_metadata;\r\n\r\n    struct Userdata {\r\n        string accType; //admin, uni, prof, student\r\n        string studentID;\r\n        string name;\r\n        string residentialAddress;\r\n        uint16 day;\r\n        uint16 month;\r\n        uint16 year;\r\n        string university;\r\n    }\r\n    mapping(address => Userdata) public address_to_userdata;\r\n\r\n    constructor() ERC721(\"Knowledge Certificate\", \"KC\") {\r\n        //Knowledge Certificate\r\n        numNFT = 1;\r\n        numSeries = 1;\r\n        numStudents = 0;\r\n\r\n        address_to_userdata[msg.sender] = Userdata(\r\n            \"admin\",\r\n            \"\",\r\n            \"NFTAPP Admin\",\r\n            \"\",\r\n            1,\r\n            1,\r\n            1900,\r\n            \"\"\r\n        );\r\n    }\r\n\r\n    function isUniversity(address uniAddress) internal view returns (bool) {\r\n        return universities[uniAddress];\r\n    }\r\n\r\n    function isProfessor(address profAddress) internal view returns (bool) {\r\n        return professors[profAddress];\r\n    }\r\n\r\n    function addUniversity(\r\n        address newUniAddress,\r\n        string memory uniName\r\n    ) external onlyOwner {\r\n        universities[newUniAddress] = true;\r\n        address_to_userdata[newUniAddress] = Userdata(\r\n            \"uni\",\r\n            \"\",\r\n            uniName,\r\n            \"\",\r\n            1,\r\n            1,\r\n            1900,\r\n            uniName\r\n        );\r\n    }\r\n\r\n    function addProfessor(\r\n        address newProfAddress,\r\n        string memory profName\r\n    ) external {\r\n        require(isUniversity(msg.sender), \"ONLY UNI\");\r\n        string memory uniName = address_to_userdata[msg.sender].name;\r\n        professors[newProfAddress] = true;\r\n        address_to_userdata[newProfAddress] = Userdata(\r\n            \"prof\",\r\n            \"\",\r\n            profName,\r\n            \"\",\r\n            1,\r\n            1,\r\n            1900,\r\n            uniName\r\n        );\r\n    }\r\n\r\n    function returnStudentAddress(\r\n        string memory studentID\r\n    ) external view returns (address studentAddress) {\r\n        studentAddress = studIdToAddr[studentID];\r\n    }\r\n\r\n    function addStudent(\r\n        //string memory accType,   ---> student\r\n        string memory studentID,\r\n        string memory name,\r\n        string memory residentialAddress,\r\n        uint16 day,\r\n        uint16 month,\r\n        uint16 year,\r\n        string memory university\r\n    ) external {\r\n        require(\r\n            !isUniversity(msg.sender) && !isProfessor(msg.sender),\r\n            \"uni/prof can't be student\"\r\n        );\r\n        address_to_userdata[msg.sender] = Userdata(\r\n            \"student\",\r\n            studentID,\r\n            name,\r\n            residentialAddress,\r\n            day,\r\n            month,\r\n            year,\r\n            university\r\n        );\r\n        studIdToAddr[studentID] = msg.sender;\r\n        students[numStudents] = msg.sender;\r\n        numStudents++;\r\n    }\r\n\r\n    function getUser(\r\n        address addr\r\n    )\r\n        external\r\n        view\r\n        returns (\r\n            string memory accType,\r\n            string memory studentID,\r\n            string memory name,\r\n            string memory residentialAddress,\r\n            uint16 day,\r\n            uint16 month,\r\n            uint16 year,\r\n            string memory university\r\n        )\r\n    {\r\n        Userdata memory data = address_to_userdata[addr];\r\n        accType = data.accType;\r\n        studentID = data.studentID;\r\n        name = data.name;\r\n        residentialAddress = data.residentialAddress;\r\n        day = data.day;\r\n        month = data.month;\r\n        year = data.year;\r\n        university = data.university;\r\n    }\r\n\r\n    function mint(\r\n        uint16 num,\r\n        uint16 day,\r\n        uint16 month,\r\n        uint16 year,\r\n        string memory title,\r\n        string memory description,\r\n        string memory course\r\n    ) external {\r\n        //function mint(uint16 num) external {\r\n        //uint256 num = 1; //zbrisi ko bo dobil num notri preko klica funkcije\r\n        for (uint256 j = 0; j < num; j++) {\r\n            require(isProfessor(msg.sender), \"not a professor\");\r\n            string memory prof = address_to_userdata[msg.sender].name;\r\n            string memory uni = address_to_userdata[msg.sender].university;\r\n            uint256 id = numNFT;\r\n\r\n            id_to_metadata[numNFT] = Metadata(\r\n                id,\r\n                day,\r\n                month,\r\n                year,\r\n                title,\r\n                description,\r\n                uni,\r\n                prof,\r\n                course,\r\n                numSeries\r\n            );\r\n            uint256 tokenID = numNFT;\r\n            _safeMint(msg.sender, tokenID);\r\n            numNFT++;\r\n            profTokens[msg.sender].push(tokenID);\r\n            profTokenNum[msg.sender]++;\r\n        }\r\n        numSeries++;\r\n    }\r\n\r\n    function transfer(address studentId, uint256 tokenID) external {\r\n        require(isProfessor(msg.sender), \"not a professor\");\r\n\r\n        _transfer(msg.sender, studentId, tokenID);\r\n        studentTokens[studentId].push(tokenID);\r\n        studentTokenNum[studentId]++;\r\n        for (uint256 i = 0; i <= profTokens[msg.sender].length - 1; i++) {\r\n            if (profTokens[msg.sender][i] == tokenID) {\r\n                profTokens[msg.sender][i] = 0;\r\n                break;\r\n            }\r\n        }\r\n        profTokenNum[msg.sender]--;\r\n\r\n        uint256[] memory newTab = new uint256[](\r\n            profTokens[msg.sender].length - 1\r\n        );\r\n        uint256 k = 0;\r\n        for (uint256 i = 0; i <= profTokens[msg.sender].length - 1; i++) {\r\n            if (profTokens[msg.sender][i] != 0) {\r\n                newTab[k] = profTokens[msg.sender][i];\r\n                k++;\r\n            }\r\n        }\r\n        profTokens[msg.sender] = newTab;\r\n\r\n        //emit NFT_transfered(msg.sender, studentId);\r\n    }\r\n\r\n    function getTokens(\r\n        address userID\r\n    ) external view returns (Metadata[] memory tokens) {\r\n        uint256[] memory tokenIDs;\r\n        if (studentTokenNum[userID] > 0) {\r\n            tokenIDs = studentTokens[userID];\r\n        } else if (profTokenNum[userID] > 0) {\r\n            tokenIDs = profTokens[userID];\r\n        }\r\n        tokens = new Metadata[](tokenIDs.length);\r\n        for (uint256 i = 0; i < tokenIDs.length; i++) {\r\n            tokens[i] = id_to_metadata[tokenIDs[i]];\r\n        }\r\n    }\r\n}\r\n",
  "sourcePath": "P:\\jure\\Documents\\Diploma\\NFTS\\contracts\\Certificate.sol",
  "compiler": {
    "name": "solc",
    "version": "0.8.17+commit.8df45f5f.Emscripten.clang"
  },
  "schemaVersion": "3.4.11",
  "updatedAt": "2023-05-08T12:06:17.310Z",
  "networkType": "ethereum",
  "devdoc": {
    "kind": "dev",
    "methods": {
      "approve(address,uint256)": {
        "details": "See {IERC721-approve}."
      },
      "balanceOf(address)": {
        "details": "See {IERC721-balanceOf}."
      },
      "getApproved(uint256)": {
        "details": "See {IERC721-getApproved}."
      },
      "isApprovedForAll(address,address)": {
        "details": "See {IERC721-isApprovedForAll}."
      },
      "name()": {
        "details": "See {IERC721Metadata-name}."
      },
      "owner()": {
        "details": "Returns the address of the current owner."
      },
      "ownerOf(uint256)": {
        "details": "See {IERC721-ownerOf}."
      },
      "renounceOwnership()": {
        "details": "Leaves the contract without owner. It will not be possible to call `onlyOwner` functions anymore. Can only be called by the current owner. NOTE: Renouncing ownership will leave the contract without an owner, thereby removing any functionality that is only available to the owner."
      },
      "safeTransferFrom(address,address,uint256)": {
        "details": "See {IERC721-safeTransferFrom}."
      },
      "safeTransferFrom(address,address,uint256,bytes)": {
        "details": "See {IERC721-safeTransferFrom}."
      },
      "setApprovalForAll(address,bool)": {
        "details": "See {IERC721-setApprovalForAll}."
      },
      "supportsInterface(bytes4)": {
        "details": "See {IERC165-supportsInterface}."
      },
      "symbol()": {
        "details": "See {IERC721Metadata-symbol}."
      },
      "tokenURI(uint256)": {
        "details": "See {IERC721Metadata-tokenURI}."
      },
      "transferFrom(address,address,uint256)": {
        "details": "See {IERC721-transferFrom}."
      },
      "transferOwnership(address)": {
        "details": "Transfers ownership of the contract to a new account (`newOwner`). Can only be called by the current owner."
      }
    },
    "version": 1
  },
  "userdoc": {
    "kind": "user",
    "methods": {},
    "version": 1
  }
}