{
  "contractName": "SSI",
  "abi": [
    {
      "inputs": [],
      "stateMutability": "nonpayable",
      "type": "constructor"
    },
    {
      "inputs": [
        {
          "internalType": "address",
          "name": "",
          "type": "address"
        }
      ],
      "name": "address_to_userdata",
      "outputs": [
        {
          "internalType": "string",
          "name": "accType",
          "type": "string"
        },
        {
          "internalType": "string",
          "name": "studentID",
          "type": "string"
        },
        {
          "internalType": "string",
          "name": "name",
          "type": "string"
        },
        {
          "internalType": "string",
          "name": "residentialAddress",
          "type": "string"
        },
        {
          "internalType": "uint16",
          "name": "day",
          "type": "uint16"
        },
        {
          "internalType": "uint16",
          "name": "month",
          "type": "uint16"
        },
        {
          "internalType": "uint16",
          "name": "year",
          "type": "uint16"
        },
        {
          "internalType": "string",
          "name": "university",
          "type": "string"
        },
        {
          "internalType": "string",
          "name": "email",
          "type": "string"
        },
        {
          "internalType": "uint16",
          "name": "latitude",
          "type": "uint16"
        },
        {
          "internalType": "uint16",
          "name": "longitude",
          "type": "uint16"
        },
        {
          "internalType": "string",
          "name": "authToken",
          "type": "string"
        }
      ],
      "stateMutability": "view",
      "type": "function",
      "constant": true
    },
    {
      "inputs": [],
      "name": "geoTolerance",
      "outputs": [
        {
          "internalType": "uint256",
          "name": "",
          "type": "uint256"
        }
      ],
      "stateMutability": "view",
      "type": "function",
      "constant": true
    },
    {
      "inputs": [],
      "name": "nonce",
      "outputs": [
        {
          "internalType": "uint256",
          "name": "",
          "type": "uint256"
        }
      ],
      "stateMutability": "view",
      "type": "function",
      "constant": true
    },
    {
      "inputs": [],
      "name": "numUsers",
      "outputs": [
        {
          "internalType": "uint256",
          "name": "",
          "type": "uint256"
        }
      ],
      "stateMutability": "view",
      "type": "function",
      "constant": true
    },
    {
      "inputs": [
        {
          "internalType": "address",
          "name": "",
          "type": "address"
        }
      ],
      "name": "users",
      "outputs": [
        {
          "internalType": "bool",
          "name": "",
          "type": "bool"
        }
      ],
      "stateMutability": "view",
      "type": "function",
      "constant": true
    },
    {
      "inputs": [
        {
          "internalType": "uint256",
          "name": "",
          "type": "uint256"
        }
      ],
      "name": "usersID",
      "outputs": [
        {
          "internalType": "address",
          "name": "",
          "type": "address"
        }
      ],
      "stateMutability": "view",
      "type": "function",
      "constant": true
    },
    {
      "inputs": [
        {
          "internalType": "address",
          "name": "addr",
          "type": "address"
        }
      ],
      "name": "userExists",
      "outputs": [
        {
          "internalType": "bool",
          "name": "",
          "type": "bool"
        }
      ],
      "stateMutability": "view",
      "type": "function",
      "constant": true
    },
    {
      "inputs": [
        {
          "internalType": "address",
          "name": "userAddress",
          "type": "address"
        },
        {
          "internalType": "string",
          "name": "accType",
          "type": "string"
        },
        {
          "internalType": "string",
          "name": "studentID",
          "type": "string"
        },
        {
          "internalType": "string",
          "name": "name",
          "type": "string"
        },
        {
          "internalType": "string",
          "name": "residentialAddress",
          "type": "string"
        },
        {
          "internalType": "uint16",
          "name": "day",
          "type": "uint16"
        },
        {
          "internalType": "uint16",
          "name": "month",
          "type": "uint16"
        },
        {
          "internalType": "uint16",
          "name": "year",
          "type": "uint16"
        },
        {
          "internalType": "string",
          "name": "university",
          "type": "string"
        },
        {
          "internalType": "string",
          "name": "email",
          "type": "string"
        }
      ],
      "name": "addUser",
      "outputs": [],
      "stateMutability": "nonpayable",
      "type": "function"
    },
    {
      "inputs": [
        {
          "internalType": "string",
          "name": "email",
          "type": "string"
        },
        {
          "internalType": "uint16",
          "name": "latitude",
          "type": "uint16"
        },
        {
          "internalType": "uint16",
          "name": "longitude",
          "type": "uint16"
        }
      ],
      "name": "editUser",
      "outputs": [],
      "stateMutability": "nonpayable",
      "type": "function"
    },
    {
      "inputs": [
        {
          "internalType": "address",
          "name": "userAddr",
          "type": "address"
        }
      ],
      "name": "getUserData",
      "outputs": [
        {
          "internalType": "string",
          "name": "accType",
          "type": "string"
        },
        {
          "internalType": "string",
          "name": "studentID",
          "type": "string"
        },
        {
          "internalType": "string",
          "name": "name",
          "type": "string"
        },
        {
          "internalType": "string",
          "name": "residentialAddress",
          "type": "string"
        },
        {
          "internalType": "uint16",
          "name": "day",
          "type": "uint16"
        },
        {
          "internalType": "uint16",
          "name": "month",
          "type": "uint16"
        },
        {
          "internalType": "uint16",
          "name": "year",
          "type": "uint16"
        },
        {
          "internalType": "string",
          "name": "university",
          "type": "string"
        },
        {
          "internalType": "string",
          "name": "email",
          "type": "string"
        },
        {
          "internalType": "uint16",
          "name": "latitude",
          "type": "uint16"
        },
        {
          "internalType": "uint16",
          "name": "longitude",
          "type": "uint16"
        }
      ],
      "stateMutability": "view",
      "type": "function",
      "constant": true
    },
    {
      "inputs": [
        {
          "internalType": "uint16",
          "name": "latitude",
          "type": "uint16"
        },
        {
          "internalType": "uint16",
          "name": "longitude",
          "type": "uint16"
        }
      ],
      "name": "confirmLogin",
      "outputs": [
        {
          "internalType": "bool",
          "name": "",
          "type": "bool"
        }
      ],
      "stateMutability": "view",
      "type": "function",
      "constant": true
    },
    {
      "inputs": [
        {
          "internalType": "string",
          "name": "_authToken",
          "type": "string"
        }
      ],
      "name": "confirmTransaction",
      "outputs": [
        {
          "internalType": "bool",
          "name": "",
          "type": "bool"
        }
      ],
      "stateMutability": "view",
      "type": "function",
      "constant": true
    },
    {
      "inputs": [],
      "name": "createAuthToken",
      "outputs": [
        {
          "internalType": "string",
          "name": "_authToken",
          "type": "string"
        }
      ],
      "stateMutability": "nonpayable",
      "type": "function"
    },
    {
      "inputs": [],
      "name": "returnAuthToken",
      "outputs": [
        {
          "internalType": "string",
          "name": "_authToken",
          "type": "string"
        }
      ],
      "stateMutability": "view",
      "type": "function",
      "constant": true
    }
  ],
  "bytecode": "0x608060405260016002553480156200001657600080fd5b50600080819055506040518061018001604052806040518060400160405280600581526020017f61646d696e00000000000000000000000000000000000000000000000000000081525081526020016040518060200160405280600081525081526020016040518060400160405280600c81526020017f4e46544150502041646d696e00000000000000000000000000000000000000008152508152602001604051806020016040528060008152508152602001600161ffff168152602001600161ffff16815260200161076c61ffff1681526020016040518060200160405280600081525081526020016040518060400160405280601381526020017f6a757261632e6b6f7340676d61696c2e636f6d0000000000000000000000000081525081526020016103e861ffff1681526020016103e861ffff1681526020016040518060600160405280602481526020016200386a60249139815250600560003373ffffffffffffffffffffffffffffffffffffffff1673ffffffffffffffffffffffffffffffffffffffff1681526020019081526020016000206000820151816000019081620001c791906200065a565b506020820151816001019081620001df91906200065a565b506040820151816002019081620001f791906200065a565b5060608201518160030190816200020f91906200065a565b5060808201518160040160006101000a81548161ffff021916908361ffff16021790555060a08201518160040160026101000a81548161ffff021916908361ffff16021790555060c08201518160040160046101000a81548161ffff021916908361ffff16021790555060e08201518160050190816200029091906200065a565b50610100820151816006019081620002a991906200065a565b506101208201518160070160006101000a81548161ffff021916908361ffff1602179055506101408201518160070160026101000a81548161ffff021916908361ffff1602179055506101608201518160080190816200030a91906200065a565b5090505033600360008054815260200190815260200160002060006101000a81548173ffffffffffffffffffffffffffffffffffffffff021916908373ffffffffffffffffffffffffffffffffffffffff1602179055506001600460003373ffffffffffffffffffffffffffffffffffffffff1673ffffffffffffffffffffffffffffffffffffffff16815260200190815260200160002060006101000a81548160ff021916908315150217905550600080815480929190620003cd9062000770565b91905055506003600181905550620007bd565b600081519050919050565b7f4e487b7100000000000000000000000000000000000000000000000000000000600052604160045260246000fd5b7f4e487b7100000000000000000000000000000000000000000000000000000000600052602260045260246000fd5b600060028204905060018216806200046257607f821691505b6020821081036200047857620004776200041a565b5b50919050565b60008190508160005260206000209050919050565b60006020601f8301049050919050565b600082821b905092915050565b600060088302620004e27fffffffffffffffffffffffffffffffffffffffffffffffffffffffffffffffff82620004a3565b620004ee8683620004a3565b95508019841693508086168417925050509392505050565b6000819050919050565b6000819050919050565b60006200053b620005356200052f8462000506565b62000510565b62000506565b9050919050565b6000819050919050565b62000557836200051a565b6200056f620005668262000542565b848454620004b0565b825550505050565b600090565b6200058662000577565b620005938184846200054c565b505050565b5b81811015620005bb57620005af6000826200057c565b60018101905062000599565b5050565b601f8211156200060a57620005d4816200047e565b620005df8462000493565b81016020851015620005ef578190505b62000607620005fe8562000493565b83018262000598565b50505b505050565b600082821c905092915050565b60006200062f600019846008026200060f565b1980831691505092915050565b60006200064a83836200061c565b9150826002028217905092915050565b6200066582620003e0565b67ffffffffffffffff811115620006815762000680620003eb565b5b6200068d825462000449565b6200069a828285620005bf565b600060209050601f831160018114620006d25760008415620006bd578287015190505b620006c985826200063c565b86555062000739565b601f198416620006e2866200047e565b60005b828110156200070c57848901518255600182019150602085019450602081019050620006e5565b868310156200072c578489015162000728601f8916826200061c565b8355505b6001600288020188555050505b505050505050565b7f4e487b7100000000000000000000000000000000000000000000000000000000600052601160045260246000fd5b60006200077d8262000506565b91507fffffffffffffffffffffffffffffffffffffffffffffffffffffffffffffffff8203620007b257620007b162000741565b5b600182019050919050565b61309d80620007cd6000396000f3fe608060405234801561001057600080fd5b50600436106100ea5760003560e01c8063a87430ba1161008c578063ccd0b31d11610066578063ccd0b31d14610258578063de348a4414610288578063ee30fdf4146102b8578063ffc9896b146102e8576100ea565b8063a87430ba146101ec578063affed0e01461021c578063b327f6341461023a576100ea565b80634346cbf6116100c85780634346cbf61461015b57806359d46a37146101775780637b28c5b31461019357806393490570146101ce576100ea565b80630e666e49146100ef57806319a50f491461011f5780633c6bb7671461013d575b600080fd5b6101096004803603810190610104919061229e565b610322565b60405161011691906122e6565b60405180910390f35b610127610378565b604051610134919061231a565b60405180910390f35b61014561037e565b604051610152919061231a565b60405180910390f35b610175600480360381019061017091906124b5565b610384565b005b610191600480360381019061018c919061263c565b610663565b005b6101ad60048036038101906101a8919061229e565b610cab565b6040516101c59c9b9a99989796959493929190612739565b60405180910390f35b6101d6611109565b6040516101e39190612824565b60405180910390f35b6102066004803603810190610201919061229e565b6117d9565b60405161021391906122e6565b60405180910390f35b6102246117f9565b604051610231919061231a565b60405180910390f35b6102426117ff565b60405161024f9190612824565b60405180910390f35b610272600480360381019061026d9190612846565b6118d7565b60405161027f91906122e6565b60405180910390f35b6102a2600480360381019061029d91906128b2565b611a75565b6040516102af91906128ee565b60405180910390f35b6102d260048036038101906102cd9190612909565b611aa8565b6040516102df91906122e6565b60405180910390f35b61030260048036038101906102fd919061229e565b611b46565b6040516103199b9a99989796959493929190612952565b60405180910390f35b6000600460008373ffffffffffffffffffffffffffffffffffffffff1673ffffffffffffffffffffffffffffffffffffffff16815260200190815260200160002060009054906101000a900460ff169050919050565b60005481565b60015481565b6040518061018001604052808a81526020018981526020018881526020018781526020018661ffff1681526020018561ffff1681526020018461ffff1681526020018381526020018281526020016103e861ffff1681526020016103e861ffff16815260200160405180606001604052806024815260200161304460249139815250600560008c73ffffffffffffffffffffffffffffffffffffffff1673ffffffffffffffffffffffffffffffffffffffff168152602001908152602001600020600082015181600001908161045a9190612c33565b5060208201518160010190816104709190612c33565b5060408201518160020190816104869190612c33565b50606082015181600301908161049c9190612c33565b5060808201518160040160006101000a81548161ffff021916908361ffff16021790555060a08201518160040160026101000a81548161ffff021916908361ffff16021790555060c08201518160040160046101000a81548161ffff021916908361ffff16021790555060e082015181600501908161051b9190612c33565b506101008201518160060190816105329190612c33565b506101208201518160070160006101000a81548161ffff021916908361ffff1602179055506101408201518160070160026101000a81548161ffff021916908361ffff1602179055506101608201518160080190816105919190612c33565b5090505089600360008054815260200190815260200160002060006101000a81548173ffffffffffffffffffffffffffffffffffffffff021916908373ffffffffffffffffffffffffffffffffffffffff1602179055506001600460008c73ffffffffffffffffffffffffffffffffffffffff1673ffffffffffffffffffffffffffffffffffffffff16815260200190815260200160002060006101000a81548160ff02191690831515021790555060008081548092919061065290612d34565b919050555050505050505050505050565b600460003373ffffffffffffffffffffffffffffffffffffffff1673ffffffffffffffffffffffffffffffffffffffff16815260200190815260200160002060009054906101000a900460ff166106ef576040517f08c379a00000000000000000000000000000000000000000000000000000000081526004016106e690612dc8565b60405180910390fd5b6000600560003373ffffffffffffffffffffffffffffffffffffffff1673ffffffffffffffffffffffffffffffffffffffff168152602001908152602001600020905060405180610180016040528082600001805461074d90612a56565b80601f016020809104026020016040519081016040528092919081815260200182805461077990612a56565b80156107c65780601f1061079b576101008083540402835291602001916107c6565b820191906000526020600020905b8154815290600101906020018083116107a957829003601f168201915b505050505081526020018260010180546107df90612a56565b80601f016020809104026020016040519081016040528092919081815260200182805461080b90612a56565b80156108585780601f1061082d57610100808354040283529160200191610858565b820191906000526020600020905b81548152906001019060200180831161083b57829003601f168201915b5050505050815260200182600201805461087190612a56565b80601f016020809104026020016040519081016040528092919081815260200182805461089d90612a56565b80156108ea5780601f106108bf576101008083540402835291602001916108ea565b820191906000526020600020905b8154815290600101906020018083116108cd57829003601f168201915b5050505050815260200182600301805461090390612a56565b80601f016020809104026020016040519081016040528092919081815260200182805461092f90612a56565b801561097c5780601f106109515761010080835404028352916020019161097c565b820191906000526020600020905b81548152906001019060200180831161095f57829003601f168201915b505050505081526020018260040160009054906101000a900461ffff1661ffff1681526020018260040160029054906101000a900461ffff1661ffff1681526020018260040160049054906101000a900461ffff1661ffff1681526020018260050180546109e990612a56565b80601f0160208091040260200160405190810160405280929190818152602001828054610a1590612a56565b8015610a625780601f10610a3757610100808354040283529160200191610a62565b820191906000526020600020905b815481529060010190602001808311610a4557829003601f168201915b505050505081526020018581526020018461ffff1681526020018361ffff168152602001826008018054610a9590612a56565b80601f0160208091040260200160405190810160405280929190818152602001828054610ac190612a56565b8015610b0e5780601f10610ae357610100808354040283529160200191610b0e565b820191906000526020600020905b815481529060010190602001808311610af157829003601f168201915b5050505050815250600560003373ffffffffffffffffffffffffffffffffffffffff1673ffffffffffffffffffffffffffffffffffffffff1681526020019081526020016000206000820151816000019081610b6a9190612c33565b506020820151816001019081610b809190612c33565b506040820151816002019081610b969190612c33565b506060820151816003019081610bac9190612c33565b5060808201518160040160006101000a81548161ffff021916908361ffff16021790555060a08201518160040160026101000a81548161ffff021916908361ffff16021790555060c08201518160040160046101000a81548161ffff021916908361ffff16021790555060e0820151816005019081610c2b9190612c33565b50610100820151816006019081610c429190612c33565b506101208201518160070160006101000a81548161ffff021916908361ffff1602179055506101408201518160070160026101000a81548161ffff021916908361ffff160217905550610160820151816008019081610ca19190612c33565b5090505050505050565b6005602052806000526040600020600091509050806000018054610cce90612a56565b80601f0160208091040260200160405190810160405280929190818152602001828054610cfa90612a56565b8015610d475780601f10610d1c57610100808354040283529160200191610d47565b820191906000526020600020905b815481529060010190602001808311610d2a57829003601f168201915b505050505090806001018054610d5c90612a56565b80601f0160208091040260200160405190810160405280929190818152602001828054610d8890612a56565b8015610dd55780601f10610daa57610100808354040283529160200191610dd5565b820191906000526020600020905b815481529060010190602001808311610db857829003601f168201915b505050505090806002018054610dea90612a56565b80601f0160208091040260200160405190810160405280929190818152602001828054610e1690612a56565b8015610e635780601f10610e3857610100808354040283529160200191610e63565b820191906000526020600020905b815481529060010190602001808311610e4657829003601f168201915b505050505090806003018054610e7890612a56565b80601f0160208091040260200160405190810160405280929190818152602001828054610ea490612a56565b8015610ef15780601f10610ec657610100808354040283529160200191610ef1565b820191906000526020600020905b815481529060010190602001808311610ed457829003601f168201915b5050505050908060040160009054906101000a900461ffff16908060040160029054906101000a900461ffff16908060040160049054906101000a900461ffff1690806005018054610f4290612a56565b80601f0160208091040260200160405190810160405280929190818152602001828054610f6e90612a56565b8015610fbb5780601f10610f9057610100808354040283529160200191610fbb565b820191906000526020600020905b815481529060010190602001808311610f9e57829003601f168201915b505050505090806006018054610fd090612a56565b80601f0160208091040260200160405190810160405280929190818152602001828054610ffc90612a56565b80156110495780601f1061101e57610100808354040283529160200191611049565b820191906000526020600020905b81548152906001019060200180831161102c57829003601f168201915b5050505050908060070160009054906101000a900461ffff16908060070160029054906101000a900461ffff169080600801805461108690612a56565b80601f01602080910402602001604051908101604052809291908181526020018280546110b290612a56565b80156110ff5780601f106110d4576101008083540402835291602001916110ff565b820191906000526020600020905b8154815290600101906020018083116110e257829003601f168201915b505050505090508c565b6060600460003373ffffffffffffffffffffffffffffffffffffffff1673ffffffffffffffffffffffffffffffffffffffff16815260200190815260200160002060009054906101000a900460ff16611197576040517f08c379a000000000000000000000000000000000000000000000000000000000815260040161118e90612dc8565b60405180910390fd5b6000600560003373ffffffffffffffffffffffffffffffffffffffff1673ffffffffffffffffffffffffffffffffffffffff168152602001908152602001600020905061122466038d7ea4c6800042336002546040516020016111fc93929190612e51565b6040516020818303038152906040528051906020012060001c61121f9190612ebd565b61200b565b91506002600081548092919061123990612d34565b919050555060405180610180016040528082600001805461125990612a56565b80601f016020809104026020016040519081016040528092919081815260200182805461128590612a56565b80156112d25780601f106112a7576101008083540402835291602001916112d2565b820191906000526020600020905b8154815290600101906020018083116112b557829003601f168201915b505050505081526020018260010180546112eb90612a56565b80601f016020809104026020016040519081016040528092919081815260200182805461131790612a56565b80156113645780601f1061133957610100808354040283529160200191611364565b820191906000526020600020905b81548152906001019060200180831161134757829003601f168201915b5050505050815260200182600201805461137d90612a56565b80601f01602080910402602001604051908101604052809291908181526020018280546113a990612a56565b80156113f65780601f106113cb576101008083540402835291602001916113f6565b820191906000526020600020905b8154815290600101906020018083116113d957829003601f168201915b5050505050815260200182600301805461140f90612a56565b80601f016020809104026020016040519081016040528092919081815260200182805461143b90612a56565b80156114885780601f1061145d57610100808354040283529160200191611488565b820191906000526020600020905b81548152906001019060200180831161146b57829003601f168201915b505050505081526020018260040160009054906101000a900461ffff1661ffff1681526020018260040160029054906101000a900461ffff1661ffff1681526020018260040160049054906101000a900461ffff1661ffff1681526020018260050180546114f590612a56565b80601f016020809104026020016040519081016040528092919081815260200182805461152190612a56565b801561156e5780601f106115435761010080835404028352916020019161156e565b820191906000526020600020905b81548152906001019060200180831161155157829003601f168201915b5050505050815260200182600601805461158790612a56565b80601f01602080910402602001604051908101604052809291908181526020018280546115b390612a56565b80156116005780601f106115d557610100808354040283529160200191611600565b820191906000526020600020905b8154815290600101906020018083116115e357829003601f168201915b505050505081526020018260070160009054906101000a900461ffff1661ffff1681526020018260070160029054906101000a900461ffff1661ffff16815260200183815250600560003373ffffffffffffffffffffffffffffffffffffffff1673ffffffffffffffffffffffffffffffffffffffff168152602001908152602001600020600082015181600001908161169a9190612c33565b5060208201518160010190816116b09190612c33565b5060408201518160020190816116c69190612c33565b5060608201518160030190816116dc9190612c33565b5060808201518160040160006101000a81548161ffff021916908361ffff16021790555060a08201518160040160026101000a81548161ffff021916908361ffff16021790555060c08201518160040160046101000a81548161ffff021916908361ffff16021790555060e082015181600501908161175b9190612c33565b506101008201518160060190816117729190612c33565b506101208201518160070160006101000a81548161ffff021916908361ffff1602179055506101408201518160070160026101000a81548161ffff021916908361ffff1602179055506101608201518160080190816117d19190612c33565b509050505090565b60046020528060005260406000206000915054906101000a900460ff1681565b60025481565b60606000600560003373ffffffffffffffffffffffffffffffffffffffff1673ffffffffffffffffffffffffffffffffffffffff168152602001908152602001600020905080600801805461185390612a56565b80601f016020809104026020016040519081016040528092919081815260200182805461187f90612a56565b80156118cc5780601f106118a1576101008083540402835291602001916118cc565b820191906000526020600020905b8154815290600101906020018083116118af57829003601f168201915b505050505091505090565b600080600560003373ffffffffffffffffffffffffffffffffffffffff1673ffffffffffffffffffffffffffffffffffffffff16815260200190815260200160002090506103e88160070160009054906101000a900461ffff1661ffff16148061198b5750600460003373ffffffffffffffffffffffffffffffffffffffff1673ffffffffffffffffffffffffffffffffffffffff16815260200190815260200160002060009054906101000a900460ff16155b1561199a576001915050611a6f565b6001548160070160009054906101000a900461ffff1661ffff166119be9190612eee565b8461ffff161080156119f657506001548160070160009054906101000a900461ffff1661ffff166119ef9190612f22565b8461ffff16115b8015611a5a57506001548160070160029054906101000a900461ffff1661ffff16611a219190612eee565b8361ffff16108015611a5957506001548160070160029054906101000a900461ffff1661ffff16611a529190612f22565b8361ffff16115b5b15611a69576001915050611a6f565b60009150505b92915050565b60036020528060005260406000206000915054906101000a900473ffffffffffffffffffffffffffffffffffffffff1681565b600080600560003373ffffffffffffffffffffffffffffffffffffffff1673ffffffffffffffffffffffffffffffffffffffff168152602001908152602001600020905082604051602001611afd9190612f92565b6040516020818303038152906040528051906020012081600801604051602001611b27919061302c565b6040516020818303038152906040528051906020012014915050919050565b6060806060806000806000606080600080600460008d73ffffffffffffffffffffffffffffffffffffffff1673ffffffffffffffffffffffffffffffffffffffff16815260200190815260200160002060009054906101000a900460ff16611be3576040517f08c379a0000000000000000000000000000000000000000000000000000000008152600401611bda90612dc8565b60405180910390fd5b6000600560008e73ffffffffffffffffffffffffffffffffffffffff1673ffffffffffffffffffffffffffffffffffffffff1681526020019081526020016000209050806000018160010182600201836003018460040160009054906101000a900461ffff168560040160029054906101000a900461ffff168660040160049054906101000a900461ffff1687600501886006018960070160009054906101000a900461ffff168a60070160029054906101000a900461ffff168a8054611ca990612a56565b80601f0160208091040260200160405190810160405280929190818152602001828054611cd590612a56565b8015611d225780601f10611cf757610100808354040283529160200191611d22565b820191906000526020600020905b815481529060010190602001808311611d0557829003601f168201915b50505050509a50898054611d3590612a56565b80601f0160208091040260200160405190810160405280929190818152602001828054611d6190612a56565b8015611dae5780601f10611d8357610100808354040283529160200191611dae565b820191906000526020600020905b815481529060010190602001808311611d9157829003601f168201915b50505050509950888054611dc190612a56565b80601f0160208091040260200160405190810160405280929190818152602001828054611ded90612a56565b8015611e3a5780601f10611e0f57610100808354040283529160200191611e3a565b820191906000526020600020905b815481529060010190602001808311611e1d57829003601f168201915b50505050509850878054611e4d90612a56565b80601f0160208091040260200160405190810160405280929190818152602001828054611e7990612a56565b8015611ec65780601f10611e9b57610100808354040283529160200191611ec6565b820191906000526020600020905b815481529060010190602001808311611ea957829003601f168201915b50505050509750838054611ed990612a56565b80601f0160208091040260200160405190810160405280929190818152602001828054611f0590612a56565b8015611f525780601f10611f2757610100808354040283529160200191611f52565b820191906000526020600020905b815481529060010190602001808311611f3557829003601f168201915b50505050509350828054611f6590612a56565b80601f0160208091040260200160405190810160405280929190818152602001828054611f9190612a56565b8015611fde5780601f10611fb357610100808354040283529160200191611fde565b820191906000526020600020905b815481529060010190602001808311611fc157829003601f168201915b505050505092509b509b509b509b509b509b509b509b509b509b509b505091939597999b90929496989a50565b60606000600161201a846120d9565b01905060008167ffffffffffffffff81111561203957612038612350565b5b6040519080825280601f01601f19166020018201604052801561206b5781602001600182028036833780820191505090505b509050600082602001820190505b6001156120ce578080600190039150507f3031323334353637383961626364656600000000000000000000000000000000600a86061a8153600a85816120c2576120c1612e8e565b5b04945060008503612079575b819350505050919050565b600080600090507a184f03e93ff9f4daa797ed6e38ed64bf6a1f0100000000000000008310612137577a184f03e93ff9f4daa797ed6e38ed64bf6a1f010000000000000000838161212d5761212c612e8e565b5b0492506040810190505b6d04ee2d6d415b85acef81000000008310612174576d04ee2d6d415b85acef8100000000838161216a57612169612e8e565b5b0492506020810190505b662386f26fc1000083106121a357662386f26fc10000838161219957612198612e8e565b5b0492506010810190505b6305f5e10083106121cc576305f5e10083816121c2576121c1612e8e565b5b0492506008810190505b61271083106121f15761271083816121e7576121e6612e8e565b5b0492506004810190505b60648310612214576064838161220a57612209612e8e565b5b0492506002810190505b600a8310612223576001810190505b80915050919050565b6000604051905090565b600080fd5b600080fd5b600073ffffffffffffffffffffffffffffffffffffffff82169050919050565b600061226b82612240565b9050919050565b61227b81612260565b811461228657600080fd5b50565b60008135905061229881612272565b92915050565b6000602082840312156122b4576122b3612236565b5b60006122c284828501612289565b91505092915050565b60008115159050919050565b6122e0816122cb565b82525050565b60006020820190506122fb60008301846122d7565b92915050565b6000819050919050565b61231481612301565b82525050565b600060208201905061232f600083018461230b565b92915050565b600080fd5b600080fd5b6000601f19601f8301169050919050565b7f4e487b7100000000000000000000000000000000000000000000000000000000600052604160045260246000fd5b6123888261233f565b810181811067ffffffffffffffff821117156123a7576123a6612350565b5b80604052505050565b60006123ba61222c565b90506123c6828261237f565b919050565b600067ffffffffffffffff8211156123e6576123e5612350565b5b6123ef8261233f565b9050602081019050919050565b82818337600083830152505050565b600061241e612419846123cb565b6123b0565b90508281526020810184848401111561243a5761243961233a565b5b6124458482856123fc565b509392505050565b600082601f83011261246257612461612335565b5b813561247284826020860161240b565b91505092915050565b600061ffff82169050919050565b6124928161247b565b811461249d57600080fd5b50565b6000813590506124af81612489565b92915050565b6000806000806000806000806000806101408b8d0312156124d9576124d8612236565b5b60006124e78d828e01612289565b9a505060208b013567ffffffffffffffff8111156125085761250761223b565b5b6125148d828e0161244d565b99505060408b013567ffffffffffffffff8111156125355761253461223b565b5b6125418d828e0161244d565b98505060608b013567ffffffffffffffff8111156125625761256161223b565b5b61256e8d828e0161244d565b97505060808b013567ffffffffffffffff81111561258f5761258e61223b565b5b61259b8d828e0161244d565b96505060a06125ac8d828e016124a0565b95505060c06125bd8d828e016124a0565b94505060e06125ce8d828e016124a0565b9350506101008b013567ffffffffffffffff8111156125f0576125ef61223b565b5b6125fc8d828e0161244d565b9250506101208b013567ffffffffffffffff81111561261e5761261d61223b565b5b61262a8d828e0161244d565b9150509295989b9194979a5092959850565b60008060006060848603121561265557612654612236565b5b600084013567ffffffffffffffff8111156126735761267261223b565b5b61267f8682870161244d565b9350506020612690868287016124a0565b92505060406126a1868287016124a0565b9150509250925092565b600081519050919050565b600082825260208201905092915050565b60005b838110156126e55780820151818401526020810190506126ca565b60008484015250505050565b60006126fc826126ab565b61270681856126b6565b93506127168185602086016126c7565b61271f8161233f565b840191505092915050565b6127338161247b565b82525050565b6000610180820190508181036000830152612754818f6126f1565b90508181036020830152612768818e6126f1565b9050818103604083015261277c818d6126f1565b90508181036060830152612790818c6126f1565b905061279f608083018b61272a565b6127ac60a083018a61272a565b6127b960c083018961272a565b81810360e08301526127cb81886126f1565b90508181036101008301526127e081876126f1565b90506127f061012083018661272a565b6127fe61014083018561272a565b81810361016083015261281181846126f1565b90509d9c50505050505050505050505050565b6000602082019050818103600083015261283e81846126f1565b905092915050565b6000806040838503121561285d5761285c612236565b5b600061286b858286016124a0565b925050602061287c858286016124a0565b9150509250929050565b61288f81612301565b811461289a57600080fd5b50565b6000813590506128ac81612886565b92915050565b6000602082840312156128c8576128c7612236565b5b60006128d68482850161289d565b91505092915050565b6128e881612260565b82525050565b600060208201905061290360008301846128df565b92915050565b60006020828403121561291f5761291e612236565b5b600082013567ffffffffffffffff81111561293d5761293c61223b565b5b6129498482850161244d565b91505092915050565b600061016082019050818103600083015261296d818e6126f1565b90508181036020830152612981818d6126f1565b90508181036040830152612995818c6126f1565b905081810360608301526129a9818b6126f1565b90506129b8608083018a61272a565b6129c560a083018961272a565b6129d260c083018861272a565b81810360e08301526129e481876126f1565b90508181036101008301526129f981866126f1565b9050612a0961012083018561272a565b612a1761014083018461272a565b9c9b505050505050505050505050565b7f4e487b7100000000000000000000000000000000000000000000000000000000600052602260045260246000fd5b60006002820490506001821680612a6e57607f821691505b602082108103612a8157612a80612a27565b5b50919050565b60008190508160005260206000209050919050565b60006020601f8301049050919050565b600082821b905092915050565b600060088302612ae97fffffffffffffffffffffffffffffffffffffffffffffffffffffffffffffffff82612aac565b612af38683612aac565b95508019841693508086168417925050509392505050565b6000819050919050565b6000612b30612b2b612b2684612301565b612b0b565b612301565b9050919050565b6000819050919050565b612b4a83612b15565b612b5e612b5682612b37565b848454612ab9565b825550505050565b600090565b612b73612b66565b612b7e818484612b41565b505050565b5b81811015612ba257612b97600082612b6b565b600181019050612b84565b5050565b601f821115612be757612bb881612a87565b612bc184612a9c565b81016020851015612bd0578190505b612be4612bdc85612a9c565b830182612b83565b50505b505050565b600082821c905092915050565b6000612c0a60001984600802612bec565b1980831691505092915050565b6000612c238383612bf9565b9150826002028217905092915050565b612c3c826126ab565b67ffffffffffffffff811115612c5557612c54612350565b5b612c5f8254612a56565b612c6a828285612ba6565b600060209050601f831160018114612c9d5760008415612c8b578287015190505b612c958582612c17565b865550612cfd565b601f198416612cab86612a87565b60005b82811015612cd357848901518255600182019150602085019450602081019050612cae565b86831015612cf05784890151612cec601f891682612bf9565b8355505b6001600288020188555050505b505050505050565b7f4e487b7100000000000000000000000000000000000000000000000000000000600052601160045260246000fd5b6000612d3f82612301565b91507fffffffffffffffffffffffffffffffffffffffffffffffffffffffffffffffff8203612d7157612d70612d05565b5b600182019050919050565b7f5573657220646f6573206e6f7420657869737400000000000000000000000000600082015250565b6000612db26013836126b6565b9150612dbd82612d7c565b602082019050919050565b60006020820190508181036000830152612de181612da5565b9050919050565b6000819050919050565b612e03612dfe82612301565b612de8565b82525050565b60008160601b9050919050565b6000612e2182612e09565b9050919050565b6000612e3382612e16565b9050919050565b612e4b612e4682612260565b612e28565b82525050565b6000612e5d8286612df2565b602082019150612e6d8285612e3a565b601482019150612e7d8284612df2565b602082019150819050949350505050565b7f4e487b7100000000000000000000000000000000000000000000000000000000600052601260045260246000fd5b6000612ec882612301565b9150612ed383612301565b925082612ee357612ee2612e8e565b5b828206905092915050565b6000612ef982612301565b9150612f0483612301565b9250828201905080821115612f1c57612f1b612d05565b5b92915050565b6000612f2d82612301565b9150612f3883612301565b9250828203905081811115612f5057612f4f612d05565b5b92915050565b600081905092915050565b6000612f6c826126ab565b612f768185612f56565b9350612f868185602086016126c7565b80840191505092915050565b6000612f9e8284612f61565b915081905092915050565b60008154612fb681612a56565b612fc08186612f56565b94506001821660008114612fdb5760018114612ff057613023565b60ff1983168652811515820286019350613023565b612ff985612a87565b60005b8381101561301b57815481890152600182019150602081019050612ffc565b838801955050505b50505092915050565b60006130388284612fa9565b91508190509291505056fe616161616161616161616161616161616161616161616161616161616161616161616161a264697066735822122067bd3f5ca5cc304e3dbd2fe22bcc743acd2932c1a7bf154708953bcfc5b8c43764736f6c63430008110033616161616161616161616161616161616161616161616161616161616161616161616161",
  "immutableReferences": {},
  "source": "// SPDX-License-Identifier: MIT\r\npragma solidity ^0.8.17;\r\n\r\nimport \"@openzeppelin/contracts/utils/Strings.sol\";\r\n\r\ncontract SSI {\r\n    uint256 public numUsers;\r\n    uint256 public geoTolerance;\r\n    uint public nonce = 1; //za generiranje random auth tokena\r\n\r\n    mapping(uint256 => address) public usersID; //rauni vseh tudentov, prof, uni in admin\r\n    mapping(address => bool) public users; //rauni vseh tudentov, prof, uni in admin\r\n\r\n    struct Userdata {\r\n        string accType; //admin, uni, prof, student\r\n        string studentID;\r\n        string name;\r\n        string residentialAddress;\r\n        uint16 day;\r\n        uint16 month;\r\n        uint16 year;\r\n        string university;\r\n        string email;\r\n        uint16 latitude;\r\n        uint16 longitude;\r\n        string authToken;\r\n    }\r\n    mapping(address => Userdata) public address_to_userdata;\r\n\r\n    constructor() {\r\n        numUsers = 0;\r\n        address_to_userdata[msg.sender] = Userdata(\r\n            \"admin\",\r\n            \"\",\r\n            \"NFTAPP Admin\",\r\n            \"\",\r\n            1,\r\n            1,\r\n            1900,\r\n            \"\",\r\n            \"jurac.kos@gmail.com\",\r\n            1000,\r\n            1000,\r\n            \"aaaaaaaaaaaaaaaaaaaaaaaaaaaaaaaaaaaa\"\r\n        );\r\n        usersID[numUsers] = msg.sender;\r\n        users[msg.sender] = true;\r\n        numUsers++;\r\n        geoTolerance = 3;\r\n    }\r\n\r\n    function userExists(address addr) external view returns (bool) {\r\n        return users[addr];\r\n    }\r\n\r\n    function addUser(\r\n        address userAddress,\r\n        string memory accType,\r\n        string memory studentID,\r\n        string memory name,\r\n        string memory residentialAddress,\r\n        uint16 day,\r\n        uint16 month,\r\n        uint16 year,\r\n        string memory university,\r\n        string memory email\r\n    ) external {\r\n        address_to_userdata[userAddress] = Userdata(\r\n            accType,\r\n            studentID,\r\n            name,\r\n            residentialAddress,\r\n            day,\r\n            month,\r\n            year,\r\n            university,\r\n            email,\r\n            1000,\r\n            1000,\r\n            \"aaaaaaaaaaaaaaaaaaaaaaaaaaaaaaaaaaaa\"\r\n        );\r\n        usersID[numUsers] = userAddress;\r\n        users[userAddress] = true;\r\n        numUsers++;\r\n    }\r\n\r\n    function editUser(\r\n        string memory email,\r\n        uint16 latitude,\r\n        uint16 longitude\r\n    ) external {\r\n        require(users[msg.sender], \"User does not exist\");\r\n        Userdata storage userData = address_to_userdata[msg.sender];\r\n        address_to_userdata[msg.sender] = Userdata(\r\n            userData.accType,\r\n            userData.studentID,\r\n            userData.name,\r\n            userData.residentialAddress,\r\n            userData.day,\r\n            userData.month,\r\n            userData.year,\r\n            userData.university,\r\n            email,\r\n            latitude,\r\n            longitude,\r\n            userData.authToken\r\n        );\r\n    }\r\n\r\n    function getUserData(\r\n        address userAddr\r\n    )\r\n        external\r\n        view\r\n        returns (\r\n            string memory accType,\r\n            string memory studentID,\r\n            string memory name,\r\n            string memory residentialAddress,\r\n            uint16 day,\r\n            uint16 month,\r\n            uint16 year,\r\n            string memory university,\r\n            string memory email,\r\n            uint16 latitude,\r\n            uint16 longitude\r\n        )\r\n    {\r\n        require(users[userAddr], \"User does not exist\");\r\n        Userdata storage userData = address_to_userdata[userAddr];\r\n        return (\r\n            userData.accType,\r\n            userData.studentID,\r\n            userData.name,\r\n            userData.residentialAddress,\r\n            userData.day,\r\n            userData.month,\r\n            userData.year,\r\n            userData.university,\r\n            userData.email,\r\n            userData.latitude,\r\n            userData.longitude\r\n        );\r\n    }\r\n\r\n    function confirmLogin(\r\n        uint16 latitude,\r\n        uint16 longitude\r\n    ) external view returns (bool) {\r\n        Userdata storage userData = address_to_userdata[msg.sender];\r\n        //first time login\r\n        if (userData.latitude == 1000 || !users[msg.sender]) {\r\n            return true;\r\n        }\r\n        //check if current geolocation is within tolerance\r\n        if (\r\n            (latitude < userData.latitude + geoTolerance &&\r\n                latitude > userData.latitude - geoTolerance) &&\r\n            (longitude < userData.longitude + geoTolerance &&\r\n                longitude > userData.longitude - geoTolerance)\r\n        ) {\r\n            return true;\r\n        } else {\r\n            return false;\r\n        }\r\n    }\r\n\r\n    function confirmTransaction(\r\n        string memory _authToken\r\n    ) external view returns (bool) {\r\n        Userdata storage userData = address_to_userdata[msg.sender];\r\n        return\r\n            keccak256(abi.encodePacked(userData.authToken)) ==\r\n            keccak256(abi.encodePacked(_authToken));\r\n    }\r\n\r\n    function createAuthToken() external returns (string memory _authToken) {\r\n        require(users[msg.sender], \"User does not exist\");\r\n        Userdata storage userData = address_to_userdata[msg.sender];\r\n\r\n        _authToken = Strings.toString(\r\n            uint(\r\n                keccak256(abi.encodePacked(block.timestamp, msg.sender, nonce))\r\n            ) % 1000000000000000\r\n        );\r\n        nonce++;\r\n\r\n        address_to_userdata[msg.sender] = Userdata(\r\n            userData.accType,\r\n            userData.studentID,\r\n            userData.name,\r\n            userData.residentialAddress,\r\n            userData.day,\r\n            userData.month,\r\n            userData.year,\r\n            userData.university,\r\n            userData.email,\r\n            userData.latitude,\r\n            userData.longitude,\r\n            _authToken\r\n        );\r\n    }\r\n\r\n    function returnAuthToken()\r\n        external\r\n        view\r\n        returns (string memory _authToken)\r\n    {\r\n        Userdata storage userData = address_to_userdata[msg.sender];\r\n        _authToken = userData.authToken;\r\n    }\r\n}\r\n",
  "sourcePath": "P:\\jure\\Documents\\Diploma\\NFTS\\contracts\\SSI.sol",
  "compiler": {
    "name": "solc",
    "version": "0.8.17+commit.8df45f5f.Emscripten.clang"
  },
  "schemaVersion": "3.4.11",
  "updatedAt": "2023-05-08T12:06:17.347Z",
  "networkType": "ethereum",
  "devdoc": {
    "kind": "dev",
    "methods": {},
    "version": 1
  },
  "userdoc": {
    "kind": "user",
    "methods": {},
    "version": 1
  }
}